{
  "_format": "hh-sol-artifact-1",
  "contractName": "SciPredict",
  "sourceName": "contracts/SciPredict.sol",
  "abi": [
    {
      "inputs": [],
      "stateMutability": "nonpayable",
      "type": "constructor"
    },
    {
      "anonymous": false,
      "inputs": [
        {
          "indexed": true,
          "internalType": "bytes32",
          "name": "id",
          "type": "bytes32"
        }
      ],
      "name": "ChainlinkCancelled",
      "type": "event"
    },
    {
      "anonymous": false,
      "inputs": [
        {
          "indexed": true,
          "internalType": "bytes32",
          "name": "id",
          "type": "bytes32"
        }
      ],
      "name": "ChainlinkFulfilled",
      "type": "event"
    },
    {
      "anonymous": false,
      "inputs": [
        {
          "indexed": true,
          "internalType": "bytes32",
          "name": "id",
          "type": "bytes32"
        }
      ],
      "name": "ChainlinkRequested",
      "type": "event"
    },
    {
      "anonymous": false,
      "inputs": [
        {
          "indexed": true,
          "internalType": "address",
          "name": "from",
          "type": "address"
        },
        {
          "indexed": true,
          "internalType": "address",
          "name": "to",
          "type": "address"
        }
      ],
      "name": "OwnershipTransferRequested",
      "type": "event"
    },
    {
      "anonymous": false,
      "inputs": [
        {
          "indexed": true,
          "internalType": "address",
          "name": "from",
          "type": "address"
        },
        {
          "indexed": true,
          "internalType": "address",
          "name": "to",
          "type": "address"
        }
      ],
      "name": "OwnershipTransferred",
      "type": "event"
    },
    {
      "inputs": [],
      "name": "acceptOwnership",
      "outputs": [],
      "stateMutability": "nonpayable",
      "type": "function"
    },
    {
      "inputs": [
        {
          "internalType": "uint256",
          "name": "predictionId",
          "type": "uint256"
        }
      ],
      "name": "claimFunds",
      "outputs": [],
      "stateMutability": "payable",
      "type": "function"
    },
    {
      "inputs": [
        {
          "internalType": "uint256",
          "name": "predictionId",
          "type": "uint256"
        }
      ],
      "name": "closeMarket",
      "outputs": [],
      "stateMutability": "nonpayable",
      "type": "function"
    },
    {
      "inputs": [
        {
          "internalType": "uint256[]",
          "name": "newBuckets",
          "type": "uint256[]"
        },
        {
          "internalType": "uint256",
          "name": "predictionId",
          "type": "uint256"
        }
      ],
      "name": "createNewBuckets",
      "outputs": [],
      "stateMutability": "nonpayable",
      "type": "function"
    },
    {
      "inputs": [
        {
          "internalType": "string",
          "name": "predictionQuestion",
          "type": "string"
        },
        {
          "internalType": "string",
          "name": "unit",
          "type": "string"
        },
        {
          "internalType": "uint256",
          "name": "unitIncrement",
          "type": "uint256"
        },
        {
          "internalType": "uint256[]",
          "name": "predictionBucket",
          "type": "uint256[]"
        },
        {
          "internalType": "uint256",
          "name": "rewardAmount",
          "type": "uint256"
        },
        {
          "internalType": "address",
          "name": "rewardToken",
          "type": "address"
        },
        {
          "internalType": "string",
          "name": "incentiveCurve",
          "type": "string"
        },
        {
          "internalType": "bool",
          "name": "permissioned",
          "type": "bool"
        },
        {
          "internalType": "uint256",
          "name": "deadline",
          "type": "uint256"
        },
        {
          "internalType": "string",
          "name": "category",
          "type": "string"
        },
        {
          "internalType": "string",
          "name": "apiEndpoint",
          "type": "string"
        }
      ],
      "name": "createPrediction",
      "outputs": [],
      "stateMutability": "payable",
      "type": "function"
    },
    {
      "inputs": [
        {
          "internalType": "bytes32",
          "name": "_requestId",
          "type": "bytes32"
        },
        {
          "internalType": "uint256",
          "name": "_outcome",
          "type": "uint256"
        }
      ],
      "name": "fulfill",
      "outputs": [],
      "stateMutability": "nonpayable",
      "type": "function"
    },
    {
      "inputs": [
        {
          "internalType": "uint256",
          "name": "predictionId",
          "type": "uint256"
        }
      ],
      "name": "getCurrentPrediction",
      "outputs": [
        {
          "internalType": "uint256",
          "name": "",
          "type": "uint256"
        }
      ],
      "stateMutability": "view",
      "type": "function"
    },
    {
      "inputs": [],
      "name": "getLivePredictionIds",
      "outputs": [
        {
          "internalType": "uint256[]",
          "name": "",
          "type": "uint256[]"
        }
      ],
      "stateMutability": "view",
      "type": "function"
    },
    {
      "inputs": [
        {
          "internalType": "uint256",
          "name": "predictionId",
          "type": "uint256"
        }
      ],
      "name": "getTotalCommitted",
      "outputs": [
        {
          "internalType": "uint256",
          "name": "",
          "type": "uint256"
        }
      ],
      "stateMutability": "view",
      "type": "function"
    },
    {
      "inputs": [],
      "name": "isWhitelisted",
      "outputs": [
        {
          "internalType": "bool",
          "name": "",
          "type": "bool"
        }
      ],
      "stateMutability": "view",
      "type": "function"
    },
    {
      "inputs": [],
      "name": "owner",
      "outputs": [
        {
          "internalType": "address",
          "name": "",
          "type": "address"
        }
      ],
      "stateMutability": "view",
      "type": "function"
    },
    {
      "inputs": [
        {
          "internalType": "uint256",
          "name": "predictionId",
          "type": "uint256"
        },
        {
          "internalType": "uint256",
          "name": "bucketIndex",
          "type": "uint256"
        }
      ],
      "name": "placeBet",
      "outputs": [],
      "stateMutability": "payable",
      "type": "function"
    },
    {
      "inputs": [
        {
          "internalType": "uint256",
          "name": "",
          "type": "uint256"
        }
      ],
      "name": "predictionMarkets",
      "outputs": [
        {
          "internalType": "string",
          "name": "predictionQuestion",
          "type": "string"
        },
        {
          "internalType": "string",
          "name": "unit",
          "type": "string"
        },
        {
          "internalType": "uint256",
          "name": "unitIncrement",
          "type": "uint256"
        },
        {
          "internalType": "uint256",
          "name": "rewardAmount",
          "type": "uint256"
        },
        {
          "internalType": "address",
          "name": "rewardToken",
          "type": "address"
        },
        {
          "internalType": "string",
          "name": "incentiveCurve",
          "type": "string"
        },
        {
          "internalType": "bool",
          "name": "permissioned",
          "type": "bool"
        },
        {
          "internalType": "uint256",
          "name": "deadline",
          "type": "uint256"
        },
        {
          "internalType": "uint256",
          "name": "id",
          "type": "uint256"
        },
        {
          "internalType": "address",
          "name": "owner",
          "type": "address"
        },
        {
          "internalType": "uint256",
          "name": "outcome",
          "type": "uint256"
        }
      ],
      "stateMutability": "view",
      "type": "function"
    },
    {
      "inputs": [
        {
          "internalType": "string",
          "name": "apiEndpoint",
          "type": "string"
        }
      ],
      "name": "requestOutcomeData",
      "outputs": [
        {
          "internalType": "bytes32",
          "name": "requestId",
          "type": "bytes32"
        }
      ],
      "stateMutability": "nonpayable",
      "type": "function"
    },
    {
      "inputs": [],
      "name": "totalPredictions",
      "outputs": [
        {
          "internalType": "uint256",
          "name": "",
          "type": "uint256"
        }
      ],
      "stateMutability": "view",
      "type": "function"
    },
    {
      "inputs": [
        {
          "internalType": "address",
          "name": "to",
          "type": "address"
        }
      ],
      "name": "transferOwnership",
      "outputs": [],
      "stateMutability": "nonpayable",
      "type": "function"
    },
    {
      "inputs": [],
      "name": "updateLivePredictionIds",
      "outputs": [],
      "stateMutability": "nonpayable",
      "type": "function"
    },
    {
      "inputs": [
        {
          "internalType": "uint256",
          "name": "predictionId",
          "type": "uint256"
        }
      ],
      "name": "viewPrediction",
      "outputs": [
        {
          "components": [
            {
              "internalType": "string",
              "name": "predictionQuestion",
              "type": "string"
            },
            {
              "internalType": "string",
              "name": "unit",
              "type": "string"
            },
            {
              "internalType": "uint256",
              "name": "unitIncrement",
              "type": "uint256"
            },
            {
              "internalType": "uint256[]",
              "name": "predictionBucket",
              "type": "uint256[]"
            },
            {
              "internalType": "uint256",
              "name": "rewardAmount",
              "type": "uint256"
            },
            {
              "internalType": "address",
              "name": "rewardToken",
              "type": "address"
            },
            {
              "internalType": "string",
              "name": "incentiveCurve",
              "type": "string"
            },
            {
              "internalType": "bool",
              "name": "permissioned",
              "type": "bool"
            },
            {
              "internalType": "uint256",
              "name": "deadline",
              "type": "uint256"
            },
            {
              "internalType": "string[2]",
              "name": "categoryApiEndpoint",
              "type": "string[2]"
            },
            {
              "internalType": "uint256",
              "name": "id",
              "type": "uint256"
            },
            {
              "internalType": "address",
              "name": "owner",
              "type": "address"
            },
            {
              "internalType": "uint256",
              "name": "outcome",
              "type": "uint256"
            },
            {
              "internalType": "uint256[3]",
              "name": "committedAmountBucket",
              "type": "uint256[3]"
            }
          ],
          "internalType": "struct SciPredict.predictionInstance",
          "name": "",
          "type": "tuple"
        }
      ],
      "stateMutability": "view",
      "type": "function"
    }
  ],
  "bytecode": "0x608060405260016004556000600d556000600f60006101000a81548173ffffffffffffffffffffffffffffffffffffffff021916908373ffffffffffffffffffffffffffffffffffffffff1602179055503480156200005d57600080fd5b50338060008073ffffffffffffffffffffffffffffffffffffffff168273ffffffffffffffffffffffffffffffffffffffff1603620000d3576040517f08c379a0000000000000000000000000000000000000000000000000000000008152600401620000ca906200041a565b60405180910390fd5b81600660006101000a81548173ffffffffffffffffffffffffffffffffffffffff021916908373ffffffffffffffffffffffffffffffffffffffff160217905550600073ffffffffffffffffffffffffffffffffffffffff168173ffffffffffffffffffffffffffffffffffffffff16146200015b576200015a816200020060201b60201c565b5b5050506200018373326c977e6efc84e512bb9c30f76e30c160ed06fb6200033160201b60201c565b620001a873cc79157eb46f5624204f47ab42b3906caa40eab76200037560201b60201c565b7f6331633565393238383038393465623662323764336361653139363730616133600881905550600a670de0b6b3a76400006001620001e8919062000475565b620001f49190620004ef565b60098190555062000599565b3373ffffffffffffffffffffffffffffffffffffffff168173ffffffffffffffffffffffffffffffffffffffff160362000271576040517f08c379a0000000000000000000000000000000000000000000000000000000008152600401620002689062000577565b60405180910390fd5b80600760006101000a81548173ffffffffffffffffffffffffffffffffffffffff021916908373ffffffffffffffffffffffffffffffffffffffff1602179055508073ffffffffffffffffffffffffffffffffffffffff16600660009054906101000a900473ffffffffffffffffffffffffffffffffffffffff1673ffffffffffffffffffffffffffffffffffffffff167fed8889f560326eb138920d842192f0eb3dd22b4f139c87a2c57538e05bae127860405160405180910390a350565b80600260006101000a81548173ffffffffffffffffffffffffffffffffffffffff021916908373ffffffffffffffffffffffffffffffffffffffff16021790555050565b80600360006101000a81548173ffffffffffffffffffffffffffffffffffffffff021916908373ffffffffffffffffffffffffffffffffffffffff16021790555050565b600082825260208201905092915050565b7f43616e6e6f7420736574206f776e657220746f207a65726f0000000000000000600082015250565b600062000402601883620003b9565b91506200040f82620003ca565b602082019050919050565b600060208201905081810360008301526200043581620003f3565b9050919050565b6000819050919050565b7f4e487b7100000000000000000000000000000000000000000000000000000000600052601160045260246000fd5b600062000482826200043c565b91506200048f836200043c565b92508282026200049f816200043c565b91508282048414831517620004b957620004b862000446565b5b5092915050565b7f4e487b7100000000000000000000000000000000000000000000000000000000600052601260045260246000fd5b6000620004fc826200043c565b915062000509836200043c565b9250826200051c576200051b620004c0565b5b828204905092915050565b7f43616e6e6f74207472616e7366657220746f2073656c66000000000000000000600082015250565b60006200055f601783620003b9565b91506200056c8262000527565b602082019050919050565b60006020820190508181036000830152620005928162000550565b9050919050565b614e5380620005a96000396000f3fe6080604052600436106101095760003560e01c80637822d47111610095578063ae41809511610064578063ae4180951461034a578063c090356814610373578063c8b551e1146103b0578063eaf5e4e9146103c7578063f2fde38b146103f257610109565b80637822d4711461028457806379ba5097146102c1578063867fbf5f146102d85780638da5cb5b1461031f57610109565b806330d8d99d116100dc57806330d8d99d146101cd5780634357855e146101e95780634afe62b514610212578063611b40951461022e578063779bd5621461025957610109565b806310731d691461010e5780631a6b6c1d1461014b5780631b55e3381461018857806321ba56c4146101a4575b600080fd5b34801561011a57600080fd5b5061013560048036038101906101309190613299565b61041b565b60405161014291906132d5565b60405180910390f35b34801561015757600080fd5b50610172600480360381019061016d9190613299565b610496565b60405161017f91906132d5565b60405180910390f35b6101a2600480360381019061019d9190613299565b610987565b005b3480156101b057600080fd5b506101cb60048036038101906101c69190613449565b610bcb565b005b6101e760048036038101906101e291906135f0565b610c6a565b005b3480156101f557600080fd5b50610210600480360381019061020b91906137c2565b61100a565b005b61022c60048036038101906102279190613802565b611131565b005b34801561023a57600080fd5b5061024361132f565b6040516102509190613851565b60405180910390f35b34801561026557600080fd5b5061026e611365565b60405161027b91906132d5565b60405180910390f35b34801561029057600080fd5b506102ab60048036038101906102a6919061386c565b61136f565b6040516102b891906138c4565b60405180910390f35b3480156102cd57600080fd5b506102d6611465565b005b3480156102e457600080fd5b506102ff60048036038101906102fa9190613299565b6115fc565b6040516103169b9a9998979695949392919061396d565b60405180910390f35b34801561032b57600080fd5b5061033461183b565b6040516103419190613a2d565b60405180910390f35b34801561035657600080fd5b50610371600480360381019061036c9190613299565b611865565b005b34801561037f57600080fd5b5061039a60048036038101906103959190613299565b6119f5565b6040516103a79190613df2565b60405180910390f35b3480156103bc57600080fd5b506103c5611e36565b005b3480156103d357600080fd5b506103dc61232c565b6040516103e99190613e83565b60405180910390f35b3480156103fe57600080fd5b5061041960048036038101906104149190613ea5565b612384565b005b6000806000905060005b600b600085815260200190815260200160002050600381101561048c57600b6000858152602001908152602001600020600e01816003811061046a57610469613ed2565b5b0154826104779190613f30565b9150808061048490613f64565b915050610425565b5080915050919050565b600080600b6000848152602001908152602001600020604051806101c00160405290816000820180546104c890613fdb565b80601f01602080910402602001604051908101604052809291908181526020018280546104f490613fdb565b80156105415780601f1061051657610100808354040283529160200191610541565b820191906000526020600020905b81548152906001019060200180831161052457829003601f168201915b5050505050815260200160018201805461055a90613fdb565b80601f016020809104026020016040519081016040528092919081815260200182805461058690613fdb565b80156105d35780601f106105a8576101008083540402835291602001916105d3565b820191906000526020600020905b8154815290600101906020018083116105b657829003601f168201915b50505050508152602001600282015481526020016003820180548060200260200160405190810160405280929190818152602001828054801561063557602002820191906000526020600020905b815481526020019060010190808311610621575b50505050508152602001600482015481526020016005820160009054906101000a900473ffffffffffffffffffffffffffffffffffffffff1673ffffffffffffffffffffffffffffffffffffffff1673ffffffffffffffffffffffffffffffffffffffff1681526020016006820180546106ae90613fdb565b80601f01602080910402602001604051908101604052809291908181526020018280546106da90613fdb565b80156107275780601f106106fc57610100808354040283529160200191610727565b820191906000526020600020905b81548152906001019060200180831161070a57829003601f168201915b505050505081526020016007820160009054906101000a900460ff161515151581526020016008820154815260200160098201600280602002604051908101604052809291906000905b8282101561081457838201805461078790613fdb565b80601f01602080910402602001604051908101604052809291908181526020018280546107b390613fdb565b80156108005780601f106107d557610100808354040283529160200191610800565b820191906000526020600020905b8154815290600101906020018083116107e357829003601f168201915b505050505081526020019060010190610771565b505050508152602001600b8201548152602001600c820160009054906101000a900473ffffffffffffffffffffffffffffffffffffffff1673ffffffffffffffffffffffffffffffffffffffff1673ffffffffffffffffffffffffffffffffffffffff168152602001600d8201548152602001600e82016003806020026040519081016040528092919082600380156108c2576020028201915b8154815260200190600101908083116108ae575b505050505081525050905060008060005b83606001515181101561097057836101a0015181600381106108f8576108f7613ed2565b5b60200201518460600151828151811061091457610913613ed2565b5b6020026020010151610926919061400c565b826109319190613f30565b9150836101a00151816003811061094b5761094a613ed2565b5b60200201518361095b9190613f30565b9250808061096890613f64565b9150506108d3565b50818161097d919061407d565b9350505050919050565b600b6000828152602001908152602001600020600801544210156109e0576040517f08c379a00000000000000000000000000000000000000000000000000000000081526004016109d7906140fa565b60405180910390fd5b60006109eb82612398565b90506000600c600084815260200190815260200160002060003373ffffffffffffffffffffffffffffffffffffffff1673ffffffffffffffffffffffffffffffffffffffff168152602001908152602001600020600083815260200190815260200160002054905060008103610a96576040517f08c379a0000000000000000000000000000000000000000000000000000000008152600401610a8d90614166565b60405180910390fd5b6000600b6000858152602001908152602001600020600e018360038110610ac057610abf613ed2565b5b015490506000600b6000868152602001908152602001600020600e01600380602002604051908101604052809291908260038015610b13576020028201915b815481526020019060010190808311610aff575b505050505090506000805b6003811015610b5f57828160038110610b3a57610b39613ed2565b5b602002015182610b4a9190613f30565b91508080610b5790613f64565b915050610b1e565b506000818486610b6f919061407d565b610b79919061400c565b90503373ffffffffffffffffffffffffffffffffffffffff166108fc829081150290604051600060405180830381858888f19350505050158015610bc1573d6000803e3d6000fd5b5050505050505050565b80600b6000828152602001908152602001600020600c0160009054906101000a900473ffffffffffffffffffffffffffffffffffffffff1673ffffffffffffffffffffffffffffffffffffffff163373ffffffffffffffffffffffffffffffffffffffff1614610c3a57600080fd5b82600b60008481526020019081526020016000206003019080519060200190610c64929190612f7c565b50505050565b60003414158015610cc85750600f60009054906101000a900473ffffffffffffffffffffffffffffffffffffffff1673ffffffffffffffffffffffffffffffffffffffff168673ffffffffffffffffffffffffffffffffffffffff16145b15610cfa57600f60009054906101000a900473ffffffffffffffffffffffffffffffffffffffff169550349650610daa565b600034148015610d585750600f60009054906101000a900473ffffffffffffffffffffffffffffffffffffffff1673ffffffffffffffffffffffffffffffffffffffff168673ffffffffffffffffffffffffffffffffffffffff1614155b15610d6e57610d698633308a612436565b610da9565b6040517f08c379a0000000000000000000000000000000000000000000000000000000008152600401610da0906141f8565b60405180910390fd5b5b610db2612fc9565b604051806101c001604052808d81526020018c81526020018b81526020018a81526020018981526020018873ffffffffffffffffffffffffffffffffffffffff16815260200187815260200186151581526020018581526020016040518060400160405280868152602001858152508152602001600d5481526020013373ffffffffffffffffffffffffffffffffffffffff1681526020016000815260200182815250600b6000600d5481526020019081526020016000206000820151816000019081610e7f91906143c4565b506020820151816001019081610e9591906143c4565b50604082015181600201556060820151816003019080519060200190610ebc929190612f7c565b506080820151816004015560a08201518160050160006101000a81548173ffffffffffffffffffffffffffffffffffffffff021916908373ffffffffffffffffffffffffffffffffffffffff16021790555060c0820151816006019081610f2391906143c4565b5060e08201518160070160006101000a81548160ff021916908315150217905550610100820151816008015561012082015181600901906002610f67929190612feb565b5061014082015181600b015561016082015181600c0160006101000a81548173ffffffffffffffffffffffffffffffffffffffff021916908373ffffffffffffffffffffffffffffffffffffffff16021790555061018082015181600d01556101a082015181600e01906003610fde929190613037565b509050506001600d6000828254610ff59190613f30565b92505081905550505050505050505050505050565b816005600082815260200190815260200160002060009054906101000a900473ffffffffffffffffffffffffffffffffffffffff1673ffffffffffffffffffffffffffffffffffffffff163373ffffffffffffffffffffffffffffffffffffffff16146110ac576040517f08c379a00000000000000000000000000000000000000000000000000000000081526004016110a390614508565b60405180910390fd5b6005600082815260200190815260200160002060006101000a81549073ffffffffffffffffffffffffffffffffffffffff0219169055807f7cc135e0cebb02c3480ae5d74d377283180a2601f8f644edf7987b009316c63a60405160405180910390a281600b6000600a548152602001908152602001600020600d0181905550505050565b61113961132f565b611178576040517f08c379a000000000000000000000000000000000000000000000000000000000815260040161116f90614574565b60405180910390fd5b600b60008381526020019081526020016000206008015442106111d0576040517f08c379a00000000000000000000000000000000000000000000000000000000081526004016111c7906145e0565b60405180910390fd5b60003411611213576040517f08c379a000000000000000000000000000000000000000000000000000000000815260040161120a9061464c565b60405180910390fd5b600061121e8361041b565b90506000600b6000858152602001908152602001600020600e01836003811061124a57611249613ed2565b5b01549050600061126e828434611260919061400c565b61256f90919063ffffffff16565b905080600c600087815260200190815260200160002060003373ffffffffffffffffffffffffffffffffffffffff1673ffffffffffffffffffffffffffffffffffffffff168152602001908152602001600020600086815260200190815260200160002060008282546112e19190613f30565b9250508190555034600b6000878152602001908152602001600020600e01856003811061131157611310613ed2565b5b0160008282546113219190613f30565b925050819055505050505050565b60003373ffffffffffffffffffffffffffffffffffffffff163373ffffffffffffffffffffffffffffffffffffffff1614905090565b6000600d54905090565b60008061138660085430634357855e60e01b612585565b90506113d26040518060400160405280600381526020017f676574000000000000000000000000000000000000000000000000000000000081525084836125b69092919063ffffffff16565b6114516040518060400160405280600481526020017f70617468000000000000000000000000000000000000000000000000000000008152506040518060400160405280600981526020017f636f6d706c657465640000000000000000000000000000000000000000000000815250836125b69092919063ffffffff16565b61145d816009546125e9565b915050919050565b600760009054906101000a900473ffffffffffffffffffffffffffffffffffffffff1673ffffffffffffffffffffffffffffffffffffffff163373ffffffffffffffffffffffffffffffffffffffff16146114f5576040517f08c379a00000000000000000000000000000000000000000000000000000000081526004016114ec906146b8565b60405180910390fd5b6000600660009054906101000a900473ffffffffffffffffffffffffffffffffffffffff16905033600660006101000a81548173ffffffffffffffffffffffffffffffffffffffff021916908373ffffffffffffffffffffffffffffffffffffffff1602179055506000600760006101000a81548173ffffffffffffffffffffffffffffffffffffffff021916908373ffffffffffffffffffffffffffffffffffffffff1602179055503373ffffffffffffffffffffffffffffffffffffffff168173ffffffffffffffffffffffffffffffffffffffff167f8be0079c531659141344cd1fd0a4f28419497f9722a3daafe3b4186f6b6457e060405160405180910390a350565b600b60205280600052604060002060009150905080600001805461161f90613fdb565b80601f016020809104026020016040519081016040528092919081815260200182805461164b90613fdb565b80156116985780601f1061166d57610100808354040283529160200191611698565b820191906000526020600020905b81548152906001019060200180831161167b57829003601f168201915b5050505050908060010180546116ad90613fdb565b80601f01602080910402602001604051908101604052809291908181526020018280546116d990613fdb565b80156117265780601f106116fb57610100808354040283529160200191611726565b820191906000526020600020905b81548152906001019060200180831161170957829003601f168201915b5050505050908060020154908060040154908060050160009054906101000a900473ffffffffffffffffffffffffffffffffffffffff169080600601805461176d90613fdb565b80601f016020809104026020016040519081016040528092919081815260200182805461179990613fdb565b80156117e65780601f106117bb576101008083540402835291602001916117e6565b820191906000526020600020905b8154815290600101906020018083116117c957829003601f168201915b5050505050908060070160009054906101000a900460ff169080600801549080600b01549080600c0160009054906101000a900473ffffffffffffffffffffffffffffffffffffffff169080600d015490508b565b6000600660009054906101000a900473ffffffffffffffffffffffffffffffffffffffff16905090565b80600b6000828152602001908152602001600020600c0160009054906101000a900473ffffffffffffffffffffffffffffffffffffffff1673ffffffffffffffffffffffffffffffffffffffff163373ffffffffffffffffffffffffffffffffffffffff16146118d457600080fd5b600b60008381526020019081526020016000206008015442101561192d576040517f08c379a000000000000000000000000000000000000000000000000000000000815260040161192490614724565b60405180910390fd5b6119e8600b600084815260200190815260200160002060090160016002811061195957611958613ed2565b5b01805461196590613fdb565b80601f016020809104026020016040519081016040528092919081815260200182805461199190613fdb565b80156119de5780601f106119b3576101008083540402835291602001916119de565b820191906000526020600020905b8154815290600101906020018083116119c157829003601f168201915b505050505061136f565b506119f1611e36565b5050565b6119fd613077565b600b6000838152602001908152602001600020604051806101c0016040529081600082018054611a2c90613fdb565b80601f0160208091040260200160405190810160405280929190818152602001828054611a5890613fdb565b8015611aa55780601f10611a7a57610100808354040283529160200191611aa5565b820191906000526020600020905b815481529060010190602001808311611a8857829003601f168201915b50505050508152602001600182018054611abe90613fdb565b80601f0160208091040260200160405190810160405280929190818152602001828054611aea90613fdb565b8015611b375780601f10611b0c57610100808354040283529160200191611b37565b820191906000526020600020905b815481529060010190602001808311611b1a57829003601f168201915b505050505081526020016002820154815260200160038201805480602002602001604051908101604052809291908181526020018280548015611b9957602002820191906000526020600020905b815481526020019060010190808311611b85575b50505050508152602001600482015481526020016005820160009054906101000a900473ffffffffffffffffffffffffffffffffffffffff1673ffffffffffffffffffffffffffffffffffffffff1673ffffffffffffffffffffffffffffffffffffffff168152602001600682018054611c1290613fdb565b80601f0160208091040260200160405190810160405280929190818152602001828054611c3e90613fdb565b8015611c8b5780601f10611c6057610100808354040283529160200191611c8b565b820191906000526020600020905b815481529060010190602001808311611c6e57829003601f168201915b505050505081526020016007820160009054906101000a900460ff161515151581526020016008820154815260200160098201600280602002604051908101604052809291906000905b82821015611d78578382018054611ceb90613fdb565b80601f0160208091040260200160405190810160405280929190818152602001828054611d1790613fdb565b8015611d645780601f10611d3957610100808354040283529160200191611d64565b820191906000526020600020905b815481529060010190602001808311611d4757829003601f168201915b505050505081526020019060010190611cd5565b505050508152602001600b8201548152602001600c820160009054906101000a900473ffffffffffffffffffffffffffffffffffffffff1673ffffffffffffffffffffffffffffffffffffffff1673ffffffffffffffffffffffffffffffffffffffff168152602001600d8201548152602001600e8201600380602002604051908101604052809291908260038015611e26576020028201915b815481526020019060010190808311611e12575b5050505050815250509050919050565b600067ffffffffffffffff811115611e5157611e50613306565b5b604051908082528060200260200182016040528015611e7f5781602001602082028036833780820191505090505b50600e9080519060200190611e95929190612f7c565b5060005b600d54811015612329576000600b6000838152602001908152602001600020604051806101c0016040529081600082018054611ed490613fdb565b80601f0160208091040260200160405190810160405280929190818152602001828054611f0090613fdb565b8015611f4d5780601f10611f2257610100808354040283529160200191611f4d565b820191906000526020600020905b815481529060010190602001808311611f3057829003601f168201915b50505050508152602001600182018054611f6690613fdb565b80601f0160208091040260200160405190810160405280929190818152602001828054611f9290613fdb565b8015611fdf5780601f10611fb457610100808354040283529160200191611fdf565b820191906000526020600020905b815481529060010190602001808311611fc257829003601f168201915b50505050508152602001600282015481526020016003820180548060200260200160405190810160405280929190818152602001828054801561204157602002820191906000526020600020905b81548152602001906001019080831161202d575b50505050508152602001600482015481526020016005820160009054906101000a900473ffffffffffffffffffffffffffffffffffffffff1673ffffffffffffffffffffffffffffffffffffffff1673ffffffffffffffffffffffffffffffffffffffff1681526020016006820180546120ba90613fdb565b80601f01602080910402602001604051908101604052809291908181526020018280546120e690613fdb565b80156121335780601f1061210857610100808354040283529160200191612133565b820191906000526020600020905b81548152906001019060200180831161211657829003601f168201915b505050505081526020016007820160009054906101000a900460ff161515151581526020016008820154815260200160098201600280602002604051908101604052809291906000905b8282101561222057838201805461219390613fdb565b80601f01602080910402602001604051908101604052809291908181526020018280546121bf90613fdb565b801561220c5780601f106121e15761010080835404028352916020019161220c565b820191906000526020600020905b8154815290600101906020018083116121ef57829003601f168201915b50505050508152602001906001019061217d565b505050508152602001600b8201548152602001600c820160009054906101000a900473ffffffffffffffffffffffffffffffffffffffff1673ffffffffffffffffffffffffffffffffffffffff1673ffffffffffffffffffffffffffffffffffffffff168152602001600d8201548152602001600e82016003806020026040519081016040528092919082600380156122ce576020028201915b8154815260200190600101908083116122ba575b505050505081525050905042816101000151111561231557600e81610140015190806001815401808255809150506001900390600052602060002001600090919091909150555b50808061232190613f64565b915050611e99565b50565b6060600e80548060200260200160405190810160405280929190818152602001828054801561237a57602002820191906000526020600020905b815481526020019060010190808311612366575b5050505050905090565b61238c612620565b612395816126b2565b50565b600080600b6000848152602001908152602001600020600d0154905060005b600b60008581526020019081526020016000206003018054905081101561242e5781600b6000868152602001908152602001600020600301828154811061240157612400613ed2565b5b90600052602060002001540361241b578092505050612431565b808061242690613f64565b9150506123b7565b50505b919050565b6000808573ffffffffffffffffffffffffffffffffffffffff166323b872dd86868660405160240161246a93929190614744565b6040516020818303038152906040529060e01b6020820180517bffffffffffffffffffffffffffffffffffffffffffffffffffffffff83818316178352505050506040516124b891906147c2565b6000604051808303816000865af19150503d80600081146124f5576040519150601f19603f3d011682016040523d82523d6000602084013e6124fa565b606091505b5091509150818015612528575060008151148061252757508080602001905181019061252691906147ee565b5b5b612567576040517f08c379a000000000000000000000000000000000000000000000000000000000815260040161255e9061488d565b60405180910390fd5b505050505050565b6000818361257d919061407d565b905092915050565b61258d613120565b612595613120565b6125ac858585846127e0909392919063ffffffff16565b9150509392505050565b6125cd82846080015161289090919063ffffffff16565b6125e481846080015161289090919063ffffffff16565b505050565b6000612618600360009054906101000a900473ffffffffffffffffffffffffffffffffffffffff1684846128b5565b905092915050565b600660009054906101000a900473ffffffffffffffffffffffffffffffffffffffff1673ffffffffffffffffffffffffffffffffffffffff163373ffffffffffffffffffffffffffffffffffffffff16146126b0576040517f08c379a00000000000000000000000000000000000000000000000000000000081526004016126a7906148f9565b60405180910390fd5b565b3373ffffffffffffffffffffffffffffffffffffffff168173ffffffffffffffffffffffffffffffffffffffff1603612720576040517f08c379a000000000000000000000000000000000000000000000000000000000815260040161271790614965565b60405180910390fd5b80600760006101000a81548173ffffffffffffffffffffffffffffffffffffffff021916908373ffffffffffffffffffffffffffffffffffffffff1602179055508073ffffffffffffffffffffffffffffffffffffffff16600660009054906101000a900473ffffffffffffffffffffffffffffffffffffffff1673ffffffffffffffffffffffffffffffffffffffff167fed8889f560326eb138920d842192f0eb3dd22b4f139c87a2c57538e05bae127860405160405180910390a350565b6127e8613120565b6127f88560800151610100612981565b508385600001818152505082856020019073ffffffffffffffffffffffffffffffffffffffff16908173ffffffffffffffffffffffffffffffffffffffff16815250508185604001907bffffffffffffffffffffffffffffffffffffffffffffffffffffffff191690817bffffffffffffffffffffffffffffffffffffffffffffffffffffffff191681525050849050949350505050565b61289d82600383516129eb565b6128b08183612b7090919063ffffffff16565b505050565b60008060045490506001816128ca9190613f30565b6004819055506000634042994660e01b60008087600001513089604001518760018c608001516000015160405160240161290b989796959493929190614a0a565b604051602081830303815290604052907bffffffffffffffffffffffffffffffffffffffffffffffffffffffff19166020820180517bffffffffffffffffffffffffffffffffffffffffffffffffffffffff8381831617835250505050905061297686838684612b92565b925050509392505050565b61298961318d565b60006020836129989190614a8f565b146129c4576020826129aa9190614a8f565b60206129b69190614ac0565b826129c19190613f30565b91505b81836020018181525050604051808452600081528281016020016040525082905092915050565b60178167ffffffffffffffff1611612a2257612a1c8160058460ff16901b60ff161784612d2790919063ffffffff16565b50612b6b565b60ff8167ffffffffffffffff1611612a7857612a51601860058460ff16901b1784612d2790919063ffffffff16565b50612a728167ffffffffffffffff16600185612d479092919063ffffffff16565b50612b6a565b61ffff8167ffffffffffffffff1611612acf57612aa8601960058460ff16901b1784612d2790919063ffffffff16565b50612ac98167ffffffffffffffff16600285612d479092919063ffffffff16565b50612b69565b63ffffffff8167ffffffffffffffff1611612b2857612b01601a60058460ff16901b1784612d2790919063ffffffff16565b50612b228167ffffffffffffffff16600485612d479092919063ffffffff16565b50612b68565b612b45601b60058460ff16901b1784612d2790919063ffffffff16565b50612b668167ffffffffffffffff16600885612d479092919063ffffffff16565b505b5b5b5b505050565b612b7861318d565b612b8a83846000015151848551612d69565b905092915050565b60003084604051602001612ba7929190614ba3565b604051602081830303815290604052805190602001209050846005600083815260200190815260200160002060006101000a81548173ffffffffffffffffffffffffffffffffffffffff021916908373ffffffffffffffffffffffffffffffffffffffff160217905550807fb5e6e01e79f91267dc17b4e6314d5d4d03593d2ceee0fbb452b750bd70ea5af960405160405180910390a2600260009054906101000a900473ffffffffffffffffffffffffffffffffffffffff1673ffffffffffffffffffffffffffffffffffffffff16634000aea08685856040518463ffffffff1660e01b8152600401612c9d93929190614bcf565b6020604051808303816000875af1158015612cbc573d6000803e3d6000fd5b505050506040513d601f19601f82011682018060405250810190612ce091906147ee565b612d1f576040517f08c379a0000000000000000000000000000000000000000000000000000000008152600401612d1690614c7f565b60405180910390fd5b949350505050565b612d2f61318d565b612d3f8384600001515184612e58565b905092915050565b612d4f61318d565b612d60848560000151518585612eae565b90509392505050565b612d7161318d565b8251821115612d7f57600080fd5b84602001518285612d909190613f30565b1115612dc557612dc4856002612db588602001518887612db09190613f30565b612f3c565b612dbf919061400c565b612f58565b5b600080865180518760208301019350808887011115612de45787860182525b60208701925050505b60208410612e2b5780518252602082612e069190613f30565b9150602081612e159190613f30565b9050602084612e249190614ac0565b9350612ded565b60006001856020036101000a03905080198251168184511681811785525050508692505050949350505050565b612e6061318d565b83602001518310612e8657612e858460028660200151612e80919061400c565b612f58565b5b83518051602085830101848153818603612ea1576001820183525b5050508390509392505050565b612eb661318d565b84602001518483612ec79190613f30565b1115612eef57612eee8560028685612edf9190613f30565b612ee9919061400c565b612f58565b5b6000600183610100612f019190614dd2565b612f0b9190614ac0565b90508551838682010185831982511617815281518588011115612f2e5784870182525b505085915050949350505050565b600081831115612f4e57829050612f52565b8190505b92915050565b600082600001519050612f6b8383612981565b50612f768382612b70565b50505050565b828054828255906000526020600020908101928215612fb8579160200282015b82811115612fb7578251825591602001919060010190612f9c565b5b509050612fc591906131a7565b5090565b6040518060600160405280600390602082028036833780820191505090505090565b8260028101928215613026579160200282015b8281111561302557825182908161301591906143c4565b5091602001919060010190612ffe565b5b50905061303391906131c4565b5090565b8260038101928215613066579160200282015b8281111561306557825182559160200191906001019061304a565b5b50905061307391906131a7565b5090565b604051806101c001604052806060815260200160608152602001600081526020016060815260200160008152602001600073ffffffffffffffffffffffffffffffffffffffff16815260200160608152602001600015158152602001600081526020016130e26131e8565b815260200160008152602001600073ffffffffffffffffffffffffffffffffffffffff1681526020016000815260200161311a612fc9565b81525090565b6040518060a0016040528060008019168152602001600073ffffffffffffffffffffffffffffffffffffffff16815260200160007bffffffffffffffffffffffffffffffffffffffffffffffffffffffff191681526020016000815260200161318761318d565b81525090565b604051806040016040528060608152602001600081525090565b5b808211156131c05760008160009055506001016131a8565b5090565b5b808211156131e457600081816131db919061320f565b506001016131c5565b5090565b60405180604001604052806002905b60608152602001906001900390816131f75790505090565b50805461321b90613fdb565b6000825580601f1061322d575061324c565b601f01602090049060005260206000209081019061324b91906131a7565b5b50565b6000604051905090565b600080fd5b600080fd5b6000819050919050565b61327681613263565b811461328157600080fd5b50565b6000813590506132938161326d565b92915050565b6000602082840312156132af576132ae613259565b5b60006132bd84828501613284565b91505092915050565b6132cf81613263565b82525050565b60006020820190506132ea60008301846132c6565b92915050565b600080fd5b6000601f19601f8301169050919050565b7f4e487b7100000000000000000000000000000000000000000000000000000000600052604160045260246000fd5b61333e826132f5565b810181811067ffffffffffffffff8211171561335d5761335c613306565b5b80604052505050565b600061337061324f565b905061337c8282613335565b919050565b600067ffffffffffffffff82111561339c5761339b613306565b5b602082029050602081019050919050565b600080fd5b60006133c56133c084613381565b613366565b905080838252602082019050602084028301858111156133e8576133e76133ad565b5b835b8181101561341157806133fd8882613284565b8452602084019350506020810190506133ea565b5050509392505050565b600082601f8301126134305761342f6132f0565b5b81356134408482602086016133b2565b91505092915050565b600080604083850312156134605761345f613259565b5b600083013567ffffffffffffffff81111561347e5761347d61325e565b5b61348a8582860161341b565b925050602061349b85828601613284565b9150509250929050565b600080fd5b600067ffffffffffffffff8211156134c5576134c4613306565b5b6134ce826132f5565b9050602081019050919050565b82818337600083830152505050565b60006134fd6134f8846134aa565b613366565b905082815260208101848484011115613519576135186134a5565b5b6135248482856134db565b509392505050565b600082601f830112613541576135406132f0565b5b81356135518482602086016134ea565b91505092915050565b600073ffffffffffffffffffffffffffffffffffffffff82169050919050565b60006135858261355a565b9050919050565b6135958161357a565b81146135a057600080fd5b50565b6000813590506135b28161358c565b92915050565b60008115159050919050565b6135cd816135b8565b81146135d857600080fd5b50565b6000813590506135ea816135c4565b92915050565b60008060008060008060008060008060006101608c8e03121561361657613615613259565b5b60008c013567ffffffffffffffff8111156136345761363361325e565b5b6136408e828f0161352c565b9b505060208c013567ffffffffffffffff8111156136615761366061325e565b5b61366d8e828f0161352c565b9a5050604061367e8e828f01613284565b99505060608c013567ffffffffffffffff81111561369f5761369e61325e565b5b6136ab8e828f0161341b565b98505060806136bc8e828f01613284565b97505060a06136cd8e828f016135a3565b96505060c08c013567ffffffffffffffff8111156136ee576136ed61325e565b5b6136fa8e828f0161352c565b95505060e061370b8e828f016135db565b94505061010061371d8e828f01613284565b9350506101208c013567ffffffffffffffff81111561373f5761373e61325e565b5b61374b8e828f0161352c565b9250506101408c013567ffffffffffffffff81111561376d5761376c61325e565b5b6137798e828f0161352c565b9150509295989b509295989b9093969950565b6000819050919050565b61379f8161378c565b81146137aa57600080fd5b50565b6000813590506137bc81613796565b92915050565b600080604083850312156137d9576137d8613259565b5b60006137e7858286016137ad565b92505060206137f885828601613284565b9150509250929050565b6000806040838503121561381957613818613259565b5b600061382785828601613284565b925050602061383885828601613284565b9150509250929050565b61384b816135b8565b82525050565b60006020820190506138666000830184613842565b92915050565b60006020828403121561388257613881613259565b5b600082013567ffffffffffffffff8111156138a05761389f61325e565b5b6138ac8482850161352c565b91505092915050565b6138be8161378c565b82525050565b60006020820190506138d960008301846138b5565b92915050565b600081519050919050565b600082825260208201905092915050565b60005b838110156139195780820151818401526020810190506138fe565b60008484015250505050565b6000613930826138df565b61393a81856138ea565b935061394a8185602086016138fb565b613953816132f5565b840191505092915050565b6139678161357a565b82525050565b6000610160820190508181036000830152613988818e613925565b9050818103602083015261399c818d613925565b90506139ab604083018c6132c6565b6139b8606083018b6132c6565b6139c5608083018a61395e565b81810360a08301526139d78189613925565b90506139e660c0830188613842565b6139f360e08301876132c6565b613a016101008301866132c6565b613a0f61012083018561395e565b613a1d6101408301846132c6565b9c9b505050505050505050505050565b6000602082019050613a42600083018461395e565b92915050565b600082825260208201905092915050565b6000613a64826138df565b613a6e8185613a48565b9350613a7e8185602086016138fb565b613a87816132f5565b840191505092915050565b613a9b81613263565b82525050565b600081519050919050565b600082825260208201905092915050565b6000819050602082019050919050565b6000613ad98383613a92565b60208301905092915050565b6000602082019050919050565b6000613afd82613aa1565b613b078185613aac565b9350613b1283613abd565b8060005b83811015613b43578151613b2a8882613acd565b9750613b3583613ae5565b925050600181019050613b16565b5085935050505092915050565b613b598161357a565b82525050565b613b68816135b8565b82525050565b600060029050919050565b600081905092915050565b6000819050919050565b6000613b9a8383613a59565b905092915050565b6000602082019050919050565b6000613bba82613b6e565b613bc48185613b79565b935083602082028501613bd685613b84565b8060005b85811015613c125784840389528151613bf38582613b8e565b9450613bfe83613ba2565b925060208a01995050600181019050613bda565b50829750879550505050505092915050565b600060039050919050565b600081905092915050565b6000819050919050565b6000602082019050919050565b613c5a81613c24565b613c648184613c2f565b9250613c6f82613c3a565b8060005b83811015613ca0578151613c878782613acd565b9650613c9283613c44565b925050600181019050613c73565b505050505050565b6000610200830160008301518482036000860152613cc68282613a59565b91505060208301518482036020860152613ce08282613a59565b9150506040830151613cf56040860182613a92565b5060608301518482036060860152613d0d8282613af2565b9150506080830151613d226080860182613a92565b5060a0830151613d3560a0860182613b50565b5060c083015184820360c0860152613d4d8282613a59565b91505060e0830151613d6260e0860182613b5f565b50610100830151613d77610100860182613a92565b50610120830151848203610120860152613d918282613baf565b915050610140830151613da8610140860182613a92565b50610160830151613dbd610160860182613b50565b50610180830151613dd2610180860182613a92565b506101a0830151613de76101a0860182613c51565b508091505092915050565b60006020820190508181036000830152613e0c8184613ca8565b905092915050565b600082825260208201905092915050565b6000613e3082613aa1565b613e3a8185613e14565b9350613e4583613abd565b8060005b83811015613e76578151613e5d8882613acd565b9750613e6883613ae5565b925050600181019050613e49565b5085935050505092915050565b60006020820190508181036000830152613e9d8184613e25565b905092915050565b600060208284031215613ebb57613eba613259565b5b6000613ec9848285016135a3565b91505092915050565b7f4e487b7100000000000000000000000000000000000000000000000000000000600052603260045260246000fd5b7f4e487b7100000000000000000000000000000000000000000000000000000000600052601160045260246000fd5b6000613f3b82613263565b9150613f4683613263565b9250828201905080821115613f5e57613f5d613f01565b5b92915050565b6000613f6f82613263565b91507fffffffffffffffffffffffffffffffffffffffffffffffffffffffffffffffff8203613fa157613fa0613f01565b5b600182019050919050565b7f4e487b7100000000000000000000000000000000000000000000000000000000600052602260045260246000fd5b60006002820490506001821680613ff357607f821691505b60208210810361400657614005613fac565b5b50919050565b600061401782613263565b915061402283613263565b925082820261403081613263565b9150828204841483151761404757614046613f01565b5b5092915050565b7f4e487b7100000000000000000000000000000000000000000000000000000000600052601260045260246000fd5b600061408882613263565b915061409383613263565b9250826140a3576140a261404e565b5b828204905092915050565b7f54686520646561646c696e6520686173206e6f74207965742070617373656400600082015250565b60006140e4601f836138ea565b91506140ef826140ae565b602082019050919050565b60006020820190508181036000830152614113816140d7565b9050919050565b7f596f7520646964206e6f7420706c616365206120636f72726563742062657400600082015250565b6000614150601f836138ea565b915061415b8261411a565b602082019050919050565b6000602082019050818103600083015261417f81614143565b9050919050565b7f52657761726420746f6b656e2073706563696669636174696f6e20756e636c6560008201527f61722e0000000000000000000000000000000000000000000000000000000000602082015250565b60006141e26023836138ea565b91506141ed82614186565b604082019050919050565b60006020820190508181036000830152614211816141d5565b9050919050565b60008190508160005260206000209050919050565b60006020601f8301049050919050565b600082821b905092915050565b60006008830261427a7fffffffffffffffffffffffffffffffffffffffffffffffffffffffffffffffff8261423d565b614284868361423d565b95508019841693508086168417925050509392505050565b6000819050919050565b60006142c16142bc6142b784613263565b61429c565b613263565b9050919050565b6000819050919050565b6142db836142a6565b6142ef6142e7826142c8565b84845461424a565b825550505050565b600090565b6143046142f7565b61430f8184846142d2565b505050565b5b81811015614333576143286000826142fc565b600181019050614315565b5050565b601f8211156143785761434981614218565b6143528461422d565b81016020851015614361578190505b61437561436d8561422d565b830182614314565b50505b505050565b600082821c905092915050565b600061439b6000198460080261437d565b1980831691505092915050565b60006143b4838361438a565b9150826002028217905092915050565b6143cd826138df565b67ffffffffffffffff8111156143e6576143e5613306565b5b6143f08254613fdb565b6143fb828285614337565b600060209050601f83116001811461442e576000841561441c578287015190505b61442685826143a8565b86555061448e565b601f19841661443c86614218565b60005b828110156144645784890151825560018201915060208501945060208101905061443f565b86831015614481578489015161447d601f89168261438a565b8355505b6001600288020188555050505b505050505050565b7f536f75726365206d75737420626520746865206f7261636c65206f662074686560008201527f2072657175657374000000000000000000000000000000000000000000000000602082015250565b60006144f26028836138ea565b91506144fd82614496565b604082019050919050565b60006020820190508181036000830152614521816144e5565b9050919050565b7f55736572206e6f742077686974656c6973746564000000000000000000000000600082015250565b600061455e6014836138ea565b915061456982614528565b602082019050919050565b6000602082019050818103600083015261458d81614551565b9050919050565b7f5468652070726564696374696f6e2068617320656e6465640000000000000000600082015250565b60006145ca6018836138ea565b91506145d582614594565b602082019050919050565b600060208201905081810360008301526145f9816145bd565b9050919050565b7f416d6f756e7473206e6565647320746f20737572706173732030000000000000600082015250565b6000614636601a836138ea565b915061464182614600565b602082019050919050565b6000602082019050818103600083015261466581614629565b9050919050565b7f4d7573742062652070726f706f736564206f776e657200000000000000000000600082015250565b60006146a26016836138ea565b91506146ad8261466c565b602082019050919050565b600060208201905081810360008301526146d181614695565b9050919050565b7f446561646c696e6520686173206e6f7420796574207061737365640000000000600082015250565b600061470e601b836138ea565b9150614719826146d8565b602082019050919050565b6000602082019050818103600083015261473d81614701565b9050919050565b6000606082019050614759600083018661395e565b614766602083018561395e565b61477360408301846132c6565b949350505050565b600081519050919050565b600081905092915050565b600061479c8261477b565b6147a68185614786565b93506147b68185602086016138fb565b80840191505092915050565b60006147ce8284614791565b915081905092915050565b6000815190506147e8816135c4565b92915050565b60006020828403121561480457614803613259565b5b6000614812848285016147d9565b91505092915050565b7f5472616e7366657248656c7065723a3a7472616e7366657246726f6d3a20747260008201527f616e7366657246726f6d206661696c6564000000000000000000000000000000602082015250565b60006148776031836138ea565b91506148828261481b565b604082019050919050565b600060208201905081810360008301526148a68161486a565b9050919050565b7f4f6e6c792063616c6c61626c65206279206f776e657200000000000000000000600082015250565b60006148e36016836138ea565b91506148ee826148ad565b602082019050919050565b60006020820190508181036000830152614912816148d6565b9050919050565b7f43616e6e6f74207472616e7366657220746f2073656c66000000000000000000600082015250565b600061494f6017836138ea565b915061495a82614919565b602082019050919050565b6000602082019050818103600083015261497e81614942565b9050919050565b60007fffffffff0000000000000000000000000000000000000000000000000000000082169050919050565b6149ba81614985565b82525050565b600082825260208201905092915050565b60006149dc8261477b565b6149e681856149c0565b93506149f68185602086016138fb565b6149ff816132f5565b840191505092915050565b600061010082019050614a20600083018b61395e565b614a2d602083018a6132c6565b614a3a60408301896138b5565b614a47606083018861395e565b614a5460808301876149b1565b614a6160a08301866132c6565b614a6e60c08301856132c6565b81810360e0830152614a8081846149d1565b90509998505050505050505050565b6000614a9a82613263565b9150614aa583613263565b925082614ab557614ab461404e565b5b828206905092915050565b6000614acb82613263565b9150614ad683613263565b9250828203905081811115614aee57614aed613f01565b5b92915050565b6000614b0f614b0a614b058461355a565b61429c565b61355a565b9050919050565b6000614b2182614af4565b9050919050565b6000614b3382614b16565b9050919050565b60008160601b9050919050565b6000614b5282614b3a565b9050919050565b6000614b6482614b47565b9050919050565b614b7c614b7782614b28565b614b59565b82525050565b6000819050919050565b614b9d614b9882613263565b614b82565b82525050565b6000614baf8285614b6b565b601482019150614bbf8284614b8c565b6020820191508190509392505050565b6000606082019050614be4600083018661395e565b614bf160208301856132c6565b8181036040830152614c0381846149d1565b9050949350505050565b7f756e61626c6520746f207472616e73666572416e6443616c6c20746f206f726160008201527f636c650000000000000000000000000000000000000000000000000000000000602082015250565b6000614c696023836138ea565b9150614c7482614c0d565b604082019050919050565b60006020820190508181036000830152614c9881614c5c565b9050919050565b60008160011c9050919050565b6000808291508390505b6001851115614cf657808604811115614cd257614cd1613f01565b5b6001851615614ce15780820291505b8081029050614cef85614c9f565b9450614cb6565b94509492505050565b600082614d0f5760019050614dcb565b81614d1d5760009050614dcb565b8160018114614d335760028114614d3d57614d6c565b6001915050614dcb565b60ff841115614d4f57614d4e613f01565b5b8360020a915084821115614d6657614d65613f01565b5b50614dcb565b5060208310610133831016604e8410600b8410161715614da15782820a905083811115614d9c57614d9b613f01565b5b614dcb565b614dae8484846001614cac565b92509050818404811115614dc557614dc4613f01565b5b81810290505b9392505050565b6000614ddd82613263565b9150614de883613263565b9250614e157fffffffffffffffffffffffffffffffffffffffffffffffffffffffffffffffff8484614cff565b90509291505056fea26469706673582212209b7abc04ee33c3839f5bda294c053e1c44a6c1e5daa1d40639eff440d447d59564736f6c63430008110033",
  "linkReferences": {},
  "deployedLinkReferences": {}
}