{
  "_format": "hh-sol-artifact-1",
  "contractName": "SciPredict",
  "sourceName": "contracts/SciPredict.sol",
  "abi": [
    {
      "inputs": [],
      "stateMutability": "nonpayable",
      "type": "constructor"
    },
    {
      "anonymous": false,
      "inputs": [
        {
          "indexed": true,
          "internalType": "bytes32",
          "name": "id",
          "type": "bytes32"
        }
      ],
      "name": "ChainlinkCancelled",
      "type": "event"
    },
    {
      "anonymous": false,
      "inputs": [
        {
          "indexed": true,
          "internalType": "bytes32",
          "name": "id",
          "type": "bytes32"
        }
      ],
      "name": "ChainlinkFulfilled",
      "type": "event"
    },
    {
      "anonymous": false,
      "inputs": [
        {
          "indexed": true,
          "internalType": "bytes32",
          "name": "id",
          "type": "bytes32"
        }
      ],
      "name": "ChainlinkRequested",
      "type": "event"
    },
    {
      "anonymous": false,
      "inputs": [
        {
          "indexed": true,
          "internalType": "address",
          "name": "from",
          "type": "address"
        },
        {
          "indexed": true,
          "internalType": "address",
          "name": "to",
          "type": "address"
        }
      ],
      "name": "OwnershipTransferRequested",
      "type": "event"
    },
    {
      "anonymous": false,
      "inputs": [
        {
          "indexed": true,
          "internalType": "address",
          "name": "from",
          "type": "address"
        },
        {
          "indexed": true,
          "internalType": "address",
          "name": "to",
          "type": "address"
        }
      ],
      "name": "OwnershipTransferred",
      "type": "event"
    },
    {
      "inputs": [],
      "name": "acceptOwnership",
      "outputs": [],
      "stateMutability": "nonpayable",
      "type": "function"
    },
    {
      "inputs": [
        {
          "internalType": "uint256",
          "name": "predictionId",
          "type": "uint256"
        }
      ],
      "name": "claimFunds",
      "outputs": [],
      "stateMutability": "payable",
      "type": "function"
    },
    {
      "inputs": [
        {
          "internalType": "uint256",
          "name": "predictionId",
          "type": "uint256"
        }
      ],
      "name": "closeMarket",
      "outputs": [],
      "stateMutability": "nonpayable",
      "type": "function"
    },
    {
      "inputs": [
        {
          "internalType": "uint256[]",
          "name": "newBuckets",
          "type": "uint256[]"
        },
        {
          "internalType": "uint256",
          "name": "predictionId",
          "type": "uint256"
        }
      ],
      "name": "createNewBuckets",
      "outputs": [],
      "stateMutability": "nonpayable",
      "type": "function"
    },
    {
      "inputs": [
        {
          "internalType": "string",
          "name": "predictionQuestion",
          "type": "string"
        },
        {
          "internalType": "string",
          "name": "unit",
          "type": "string"
        },
        {
          "internalType": "uint256",
          "name": "unitIncrement",
          "type": "uint256"
        },
        {
          "internalType": "uint256[]",
          "name": "predictionBucket",
          "type": "uint256[]"
        },
        {
          "internalType": "uint256",
          "name": "rewardAmount",
          "type": "uint256"
        },
        {
          "internalType": "address",
          "name": "rewardToken",
          "type": "address"
        },
        {
          "internalType": "string",
          "name": "incentiveCurve",
          "type": "string"
        },
        {
          "internalType": "bool",
          "name": "permissioned",
          "type": "bool"
        },
        {
          "internalType": "uint256",
          "name": "deadline",
          "type": "uint256"
        },
        {
          "internalType": "string",
          "name": "category",
          "type": "string"
        },
        {
          "internalType": "string",
          "name": "apiEndpoint",
          "type": "string"
        }
      ],
      "name": "createPrediction",
      "outputs": [],
      "stateMutability": "payable",
      "type": "function"
    },
    {
      "inputs": [
        {
          "internalType": "bytes32",
          "name": "_requestId",
          "type": "bytes32"
        },
        {
          "internalType": "uint256",
          "name": "_outcome",
          "type": "uint256"
        }
      ],
      "name": "fulfill",
      "outputs": [],
      "stateMutability": "nonpayable",
      "type": "function"
    },
    {
      "inputs": [
        {
          "internalType": "uint256",
          "name": "predictionId",
          "type": "uint256"
        }
      ],
      "name": "getCurrentPrediction",
      "outputs": [
        {
          "internalType": "uint256",
          "name": "",
          "type": "uint256"
        }
      ],
      "stateMutability": "view",
      "type": "function"
    },
    {
      "inputs": [],
      "name": "getLivePredictionIds",
      "outputs": [
        {
          "internalType": "uint256[]",
          "name": "",
          "type": "uint256[]"
        }
      ],
      "stateMutability": "view",
      "type": "function"
    },
    {
      "inputs": [],
      "name": "isWhitelisted",
      "outputs": [
        {
          "internalType": "bool",
          "name": "",
          "type": "bool"
        }
      ],
      "stateMutability": "view",
      "type": "function"
    },
    {
      "inputs": [],
      "name": "owner",
      "outputs": [
        {
          "internalType": "address",
          "name": "",
          "type": "address"
        }
      ],
      "stateMutability": "view",
      "type": "function"
    },
    {
      "inputs": [
        {
          "internalType": "uint256",
          "name": "predictionId",
          "type": "uint256"
        },
        {
          "internalType": "uint256",
          "name": "bucketIndex",
          "type": "uint256"
        }
      ],
      "name": "placeBet",
      "outputs": [],
      "stateMutability": "payable",
      "type": "function"
    },
    {
      "inputs": [
        {
          "internalType": "uint256",
          "name": "",
          "type": "uint256"
        }
      ],
      "name": "predictionMarkets",
      "outputs": [
        {
          "internalType": "string",
          "name": "predictionQuestion",
          "type": "string"
        },
        {
          "internalType": "string",
          "name": "unit",
          "type": "string"
        },
        {
          "internalType": "uint256",
          "name": "unitIncrement",
          "type": "uint256"
        },
        {
          "internalType": "uint256",
          "name": "rewardAmount",
          "type": "uint256"
        },
        {
          "internalType": "address",
          "name": "rewardToken",
          "type": "address"
        },
        {
          "internalType": "string",
          "name": "incentiveCurve",
          "type": "string"
        },
        {
          "internalType": "bool",
          "name": "permissioned",
          "type": "bool"
        },
        {
          "internalType": "uint256",
          "name": "deadline",
          "type": "uint256"
        },
        {
          "internalType": "uint256",
          "name": "id",
          "type": "uint256"
        },
        {
          "internalType": "address",
          "name": "owner",
          "type": "address"
        },
        {
          "internalType": "uint256",
          "name": "outcome",
          "type": "uint256"
        }
      ],
      "stateMutability": "view",
      "type": "function"
    },
    {
      "inputs": [
        {
          "internalType": "string",
          "name": "apiEndpoint",
          "type": "string"
        }
      ],
      "name": "requestOutcomeData",
      "outputs": [
        {
          "internalType": "bytes32",
          "name": "requestId",
          "type": "bytes32"
        }
      ],
      "stateMutability": "nonpayable",
      "type": "function"
    },
    {
      "inputs": [],
      "name": "totalPredictions",
      "outputs": [
        {
          "internalType": "uint256",
          "name": "",
          "type": "uint256"
        }
      ],
      "stateMutability": "view",
      "type": "function"
    },
    {
      "inputs": [
        {
          "internalType": "address",
          "name": "to",
          "type": "address"
        }
      ],
      "name": "transferOwnership",
      "outputs": [],
      "stateMutability": "nonpayable",
      "type": "function"
    },
    {
      "inputs": [],
      "name": "updateLivePredictionIds",
      "outputs": [],
      "stateMutability": "nonpayable",
      "type": "function"
    },
    {
      "inputs": [
        {
          "internalType": "uint256",
          "name": "predictionId",
          "type": "uint256"
        }
      ],
      "name": "viewPrediction",
      "outputs": [
        {
          "components": [
            {
              "internalType": "string",
              "name": "predictionQuestion",
              "type": "string"
            },
            {
              "internalType": "string",
              "name": "unit",
              "type": "string"
            },
            {
              "internalType": "uint256",
              "name": "unitIncrement",
              "type": "uint256"
            },
            {
              "internalType": "uint256[]",
              "name": "predictionBucket",
              "type": "uint256[]"
            },
            {
              "internalType": "uint256",
              "name": "rewardAmount",
              "type": "uint256"
            },
            {
              "internalType": "address",
              "name": "rewardToken",
              "type": "address"
            },
            {
              "internalType": "string",
              "name": "incentiveCurve",
              "type": "string"
            },
            {
              "internalType": "bool",
              "name": "permissioned",
              "type": "bool"
            },
            {
              "internalType": "uint256",
              "name": "deadline",
              "type": "uint256"
            },
            {
              "internalType": "string[2]",
              "name": "categoryApiEndpoint",
              "type": "string[2]"
            },
            {
              "internalType": "uint256",
              "name": "id",
              "type": "uint256"
            },
            {
              "internalType": "address",
              "name": "owner",
              "type": "address"
            },
            {
              "internalType": "uint256",
              "name": "outcome",
              "type": "uint256"
            },
            {
              "internalType": "uint256[3]",
              "name": "committedAmountBucket",
              "type": "uint256[3]"
            }
          ],
          "internalType": "struct SciPredict.predictionInstance",
          "name": "",
          "type": "tuple"
        }
      ],
      "stateMutability": "view",
      "type": "function"
    }
  ],
  "bytecode": "0x608060405260016004556000600d556000600f60006101000a81548173ffffffffffffffffffffffffffffffffffffffff021916908373ffffffffffffffffffffffffffffffffffffffff1602179055503480156200005d57600080fd5b50338060008073ffffffffffffffffffffffffffffffffffffffff168273ffffffffffffffffffffffffffffffffffffffff1603620000d3576040517f08c379a0000000000000000000000000000000000000000000000000000000008152600401620000ca906200041a565b60405180910390fd5b81600660006101000a81548173ffffffffffffffffffffffffffffffffffffffff021916908373ffffffffffffffffffffffffffffffffffffffff160217905550600073ffffffffffffffffffffffffffffffffffffffff168173ffffffffffffffffffffffffffffffffffffffff16146200015b576200015a816200020060201b60201c565b5b5050506200018373326c977e6efc84e512bb9c30f76e30c160ed06fb6200033160201b60201c565b620001a873cc79157eb46f5624204f47ab42b3906caa40eab76200037560201b60201c565b7f6331633565393238383038393465623662323764336361653139363730616133600881905550600a670de0b6b3a76400006001620001e8919062000475565b620001f49190620004ef565b60098190555062000599565b3373ffffffffffffffffffffffffffffffffffffffff168173ffffffffffffffffffffffffffffffffffffffff160362000271576040517f08c379a0000000000000000000000000000000000000000000000000000000008152600401620002689062000577565b60405180910390fd5b80600760006101000a81548173ffffffffffffffffffffffffffffffffffffffff021916908373ffffffffffffffffffffffffffffffffffffffff1602179055508073ffffffffffffffffffffffffffffffffffffffff16600660009054906101000a900473ffffffffffffffffffffffffffffffffffffffff1673ffffffffffffffffffffffffffffffffffffffff167fed8889f560326eb138920d842192f0eb3dd22b4f139c87a2c57538e05bae127860405160405180910390a350565b80600260006101000a81548173ffffffffffffffffffffffffffffffffffffffff021916908373ffffffffffffffffffffffffffffffffffffffff16021790555050565b80600360006101000a81548173ffffffffffffffffffffffffffffffffffffffff021916908373ffffffffffffffffffffffffffffffffffffffff16021790555050565b600082825260208201905092915050565b7f43616e6e6f7420736574206f776e657220746f207a65726f0000000000000000600082015250565b600062000402601883620003b9565b91506200040f82620003ca565b602082019050919050565b600060208201905081810360008301526200043581620003f3565b9050919050565b6000819050919050565b7f4e487b7100000000000000000000000000000000000000000000000000000000600052601160045260246000fd5b600062000482826200043c565b91506200048f836200043c565b92508282026200049f816200043c565b91508282048414831517620004b957620004b862000446565b5b5092915050565b7f4e487b7100000000000000000000000000000000000000000000000000000000600052601260045260246000fd5b6000620004fc826200043c565b915062000509836200043c565b9250826200051c576200051b620004c0565b5b828204905092915050565b7f43616e6e6f74207472616e7366657220746f2073656c66000000000000000000600082015250565b60006200055f601783620003b9565b91506200056c8262000527565b602082019050919050565b60006020820190508181036000830152620005928162000550565b9050919050565b614d1a80620005a96000396000f3fe6080604052600436106100fe5760003560e01c80637822d47111610095578063ae41809511610064578063ae41809514610302578063c09035681461032b578063c8b551e114610368578063eaf5e4e91461037f578063f2fde38b146103aa576100fe565b80637822d4711461023c57806379ba509714610279578063867fbf5f146102905780638da5cb5b146102d7576100fe565b80634357855e116100d15780634357855e146101a15780634afe62b5146101ca578063611b4095146101e6578063779bd56214610211576100fe565b80631a6b6c1d146101035780631b55e3381461014057806321ba56c41461015c57806330d8d99d14610185575b600080fd5b34801561010f57600080fd5b5061012a60048036038101906101259190613160565b6103d3565b604051610137919061319c565b60405180910390f35b61015a60048036038101906101559190613160565b6108c4565b005b34801561016857600080fd5b50610183600480360381019061017e9190613310565b610b08565b005b61019f600480360381019061019a91906134b7565b610ba7565b005b3480156101ad57600080fd5b506101c860048036038101906101c39190613689565b610f47565b005b6101e460048036038101906101df91906136c9565b61106e565b005b3480156101f257600080fd5b506101fb61120c565b6040516102089190613718565b60405180910390f35b34801561021d57600080fd5b50610226611242565b604051610233919061319c565b60405180910390f35b34801561024857600080fd5b50610263600480360381019061025e9190613733565b61124c565b604051610270919061378b565b60405180910390f35b34801561028557600080fd5b5061028e611342565b005b34801561029c57600080fd5b506102b760048036038101906102b29190613160565b6114d9565b6040516102ce9b9a99989796959493929190613834565b60405180910390f35b3480156102e357600080fd5b506102ec611718565b6040516102f991906138f4565b60405180910390f35b34801561030e57600080fd5b5061032960048036038101906103249190613160565b611742565b005b34801561033757600080fd5b50610352600480360381019061034d9190613160565b6118d2565b60405161035f9190613cb9565b60405180910390f35b34801561037457600080fd5b5061037d611d13565b005b34801561038b57600080fd5b50610394612209565b6040516103a19190613d4a565b60405180910390f35b3480156103b657600080fd5b506103d160048036038101906103cc9190613d6c565b612261565b005b600080600b6000848152602001908152602001600020604051806101c001604052908160008201805461040590613dc8565b80601f016020809104026020016040519081016040528092919081815260200182805461043190613dc8565b801561047e5780601f106104535761010080835404028352916020019161047e565b820191906000526020600020905b81548152906001019060200180831161046157829003601f168201915b5050505050815260200160018201805461049790613dc8565b80601f01602080910402602001604051908101604052809291908181526020018280546104c390613dc8565b80156105105780601f106104e557610100808354040283529160200191610510565b820191906000526020600020905b8154815290600101906020018083116104f357829003601f168201915b50505050508152602001600282015481526020016003820180548060200260200160405190810160405280929190818152602001828054801561057257602002820191906000526020600020905b81548152602001906001019080831161055e575b50505050508152602001600482015481526020016005820160009054906101000a900473ffffffffffffffffffffffffffffffffffffffff1673ffffffffffffffffffffffffffffffffffffffff1673ffffffffffffffffffffffffffffffffffffffff1681526020016006820180546105eb90613dc8565b80601f016020809104026020016040519081016040528092919081815260200182805461061790613dc8565b80156106645780601f1061063957610100808354040283529160200191610664565b820191906000526020600020905b81548152906001019060200180831161064757829003601f168201915b505050505081526020016007820160009054906101000a900460ff161515151581526020016008820154815260200160098201600280602002604051908101604052809291906000905b828210156107515783820180546106c490613dc8565b80601f01602080910402602001604051908101604052809291908181526020018280546106f090613dc8565b801561073d5780601f106107125761010080835404028352916020019161073d565b820191906000526020600020905b81548152906001019060200180831161072057829003601f168201915b5050505050815260200190600101906106ae565b505050508152602001600b8201548152602001600c820160009054906101000a900473ffffffffffffffffffffffffffffffffffffffff1673ffffffffffffffffffffffffffffffffffffffff1673ffffffffffffffffffffffffffffffffffffffff168152602001600d8201548152602001600e82016003806020026040519081016040528092919082600380156107ff576020028201915b8154815260200190600101908083116107eb575b505050505081525050905060008060005b8360600151518110156108ad57836101a00151816003811061083557610834613df9565b5b60200201518460600151828151811061085157610850613df9565b5b60200260200101516108639190613e57565b8261086e9190613e99565b9150836101a00151816003811061088857610887613df9565b5b6020020151836108989190613e99565b925080806108a590613ecd565b915050610810565b5081816108ba9190613f44565b9350505050919050565b600b60008281526020019081526020016000206008015442101561091d576040517f08c379a000000000000000000000000000000000000000000000000000000000815260040161091490613fc1565b60405180910390fd5b600061092882612275565b90506000600c600084815260200190815260200160002060003373ffffffffffffffffffffffffffffffffffffffff1673ffffffffffffffffffffffffffffffffffffffff1681526020019081526020016000206000838152602001908152602001600020549050600081036109d3576040517f08c379a00000000000000000000000000000000000000000000000000000000081526004016109ca9061402d565b60405180910390fd5b6000600b6000858152602001908152602001600020600e0183600381106109fd576109fc613df9565b5b015490506000600b6000868152602001908152602001600020600e01600380602002604051908101604052809291908260038015610a50576020028201915b815481526020019060010190808311610a3c575b505050505090506000805b6003811015610a9c57828160038110610a7757610a76613df9565b5b602002015182610a879190613e99565b91508080610a9490613ecd565b915050610a5b565b506000818486610aac9190613f44565b610ab69190613e57565b90503373ffffffffffffffffffffffffffffffffffffffff166108fc829081150290604051600060405180830381858888f19350505050158015610afe573d6000803e3d6000fd5b5050505050505050565b80600b6000828152602001908152602001600020600c0160009054906101000a900473ffffffffffffffffffffffffffffffffffffffff1673ffffffffffffffffffffffffffffffffffffffff163373ffffffffffffffffffffffffffffffffffffffff1614610b7757600080fd5b82600b60008481526020019081526020016000206003019080519060200190610ba1929190612e43565b50505050565b60003414158015610c055750600f60009054906101000a900473ffffffffffffffffffffffffffffffffffffffff1673ffffffffffffffffffffffffffffffffffffffff168673ffffffffffffffffffffffffffffffffffffffff16145b15610c3757600f60009054906101000a900473ffffffffffffffffffffffffffffffffffffffff169550349650610ce7565b600034148015610c955750600f60009054906101000a900473ffffffffffffffffffffffffffffffffffffffff1673ffffffffffffffffffffffffffffffffffffffff168673ffffffffffffffffffffffffffffffffffffffff1614155b15610cab57610ca68633308a612313565b610ce6565b6040517f08c379a0000000000000000000000000000000000000000000000000000000008152600401610cdd906140bf565b60405180910390fd5b5b610cef612e90565b604051806101c001604052808d81526020018c81526020018b81526020018a81526020018981526020018873ffffffffffffffffffffffffffffffffffffffff16815260200187815260200186151581526020018581526020016040518060400160405280868152602001858152508152602001600d5481526020013373ffffffffffffffffffffffffffffffffffffffff1681526020016000815260200182815250600b6000600d5481526020019081526020016000206000820151816000019081610dbc919061428b565b506020820151816001019081610dd2919061428b565b50604082015181600201556060820151816003019080519060200190610df9929190612e43565b506080820151816004015560a08201518160050160006101000a81548173ffffffffffffffffffffffffffffffffffffffff021916908373ffffffffffffffffffffffffffffffffffffffff16021790555060c0820151816006019081610e60919061428b565b5060e08201518160070160006101000a81548160ff021916908315150217905550610100820151816008015561012082015181600901906002610ea4929190612eb2565b5061014082015181600b015561016082015181600c0160006101000a81548173ffffffffffffffffffffffffffffffffffffffff021916908373ffffffffffffffffffffffffffffffffffffffff16021790555061018082015181600d01556101a082015181600e01906003610f1b929190612efe565b509050506001600d6000828254610f329190613e99565b92505081905550505050505050505050505050565b816005600082815260200190815260200160002060009054906101000a900473ffffffffffffffffffffffffffffffffffffffff1673ffffffffffffffffffffffffffffffffffffffff163373ffffffffffffffffffffffffffffffffffffffff1614610fe9576040517f08c379a0000000000000000000000000000000000000000000000000000000008152600401610fe0906143cf565b60405180910390fd5b6005600082815260200190815260200160002060006101000a81549073ffffffffffffffffffffffffffffffffffffffff0219169055807f7cc135e0cebb02c3480ae5d74d377283180a2601f8f644edf7987b009316c63a60405160405180910390a281600b6000600a548152602001908152602001600020600d0181905550505050565b61107661120c565b6110b5576040517f08c379a00000000000000000000000000000000000000000000000000000000081526004016110ac9061443b565b60405180910390fd5b600b600083815260200190815260200160002060080154421061110d576040517f08c379a0000000000000000000000000000000000000000000000000000000008152600401611104906144a7565b60405180910390fd5b60003411611150576040517f08c379a000000000000000000000000000000000000000000000000000000000815260040161114790614513565b60405180910390fd5b34600b6000848152602001908152602001600020600e01826003811061117957611178613df9565b5b0160008282546111899190613e99565b9250508190555034600c600084815260200190815260200160002060003373ffffffffffffffffffffffffffffffffffffffff1673ffffffffffffffffffffffffffffffffffffffff168152602001908152602001600020600083815260200190815260200160002060008282546112019190613e99565b925050819055505050565b60003373ffffffffffffffffffffffffffffffffffffffff163373ffffffffffffffffffffffffffffffffffffffff1614905090565b6000600d54905090565b60008061126360085430634357855e60e01b61244c565b90506112af6040518060400160405280600381526020017f6765740000000000000000000000000000000000000000000000000000000000815250848361247d9092919063ffffffff16565b61132e6040518060400160405280600481526020017f70617468000000000000000000000000000000000000000000000000000000008152506040518060400160405280600981526020017f636f6d706c6574656400000000000000000000000000000000000000000000008152508361247d9092919063ffffffff16565b61133a816009546124b0565b915050919050565b600760009054906101000a900473ffffffffffffffffffffffffffffffffffffffff1673ffffffffffffffffffffffffffffffffffffffff163373ffffffffffffffffffffffffffffffffffffffff16146113d2576040517f08c379a00000000000000000000000000000000000000000000000000000000081526004016113c99061457f565b60405180910390fd5b6000600660009054906101000a900473ffffffffffffffffffffffffffffffffffffffff16905033600660006101000a81548173ffffffffffffffffffffffffffffffffffffffff021916908373ffffffffffffffffffffffffffffffffffffffff1602179055506000600760006101000a81548173ffffffffffffffffffffffffffffffffffffffff021916908373ffffffffffffffffffffffffffffffffffffffff1602179055503373ffffffffffffffffffffffffffffffffffffffff168173ffffffffffffffffffffffffffffffffffffffff167f8be0079c531659141344cd1fd0a4f28419497f9722a3daafe3b4186f6b6457e060405160405180910390a350565b600b6020528060005260406000206000915090508060000180546114fc90613dc8565b80601f016020809104026020016040519081016040528092919081815260200182805461152890613dc8565b80156115755780601f1061154a57610100808354040283529160200191611575565b820191906000526020600020905b81548152906001019060200180831161155857829003601f168201915b50505050509080600101805461158a90613dc8565b80601f01602080910402602001604051908101604052809291908181526020018280546115b690613dc8565b80156116035780601f106115d857610100808354040283529160200191611603565b820191906000526020600020905b8154815290600101906020018083116115e657829003601f168201915b5050505050908060020154908060040154908060050160009054906101000a900473ffffffffffffffffffffffffffffffffffffffff169080600601805461164a90613dc8565b80601f016020809104026020016040519081016040528092919081815260200182805461167690613dc8565b80156116c35780601f10611698576101008083540402835291602001916116c3565b820191906000526020600020905b8154815290600101906020018083116116a657829003601f168201915b5050505050908060070160009054906101000a900460ff169080600801549080600b01549080600c0160009054906101000a900473ffffffffffffffffffffffffffffffffffffffff169080600d015490508b565b6000600660009054906101000a900473ffffffffffffffffffffffffffffffffffffffff16905090565b80600b6000828152602001908152602001600020600c0160009054906101000a900473ffffffffffffffffffffffffffffffffffffffff1673ffffffffffffffffffffffffffffffffffffffff163373ffffffffffffffffffffffffffffffffffffffff16146117b157600080fd5b600b60008381526020019081526020016000206008015442101561180a576040517f08c379a0000000000000000000000000000000000000000000000000000000008152600401611801906145eb565b60405180910390fd5b6118c5600b600084815260200190815260200160002060090160016002811061183657611835613df9565b5b01805461184290613dc8565b80601f016020809104026020016040519081016040528092919081815260200182805461186e90613dc8565b80156118bb5780601f10611890576101008083540402835291602001916118bb565b820191906000526020600020905b81548152906001019060200180831161189e57829003601f168201915b505050505061124c565b506118ce611d13565b5050565b6118da612f3e565b600b6000838152602001908152602001600020604051806101c001604052908160008201805461190990613dc8565b80601f016020809104026020016040519081016040528092919081815260200182805461193590613dc8565b80156119825780601f1061195757610100808354040283529160200191611982565b820191906000526020600020905b81548152906001019060200180831161196557829003601f168201915b5050505050815260200160018201805461199b90613dc8565b80601f01602080910402602001604051908101604052809291908181526020018280546119c790613dc8565b8015611a145780601f106119e957610100808354040283529160200191611a14565b820191906000526020600020905b8154815290600101906020018083116119f757829003601f168201915b505050505081526020016002820154815260200160038201805480602002602001604051908101604052809291908181526020018280548015611a7657602002820191906000526020600020905b815481526020019060010190808311611a62575b50505050508152602001600482015481526020016005820160009054906101000a900473ffffffffffffffffffffffffffffffffffffffff1673ffffffffffffffffffffffffffffffffffffffff1673ffffffffffffffffffffffffffffffffffffffff168152602001600682018054611aef90613dc8565b80601f0160208091040260200160405190810160405280929190818152602001828054611b1b90613dc8565b8015611b685780601f10611b3d57610100808354040283529160200191611b68565b820191906000526020600020905b815481529060010190602001808311611b4b57829003601f168201915b505050505081526020016007820160009054906101000a900460ff161515151581526020016008820154815260200160098201600280602002604051908101604052809291906000905b82821015611c55578382018054611bc890613dc8565b80601f0160208091040260200160405190810160405280929190818152602001828054611bf490613dc8565b8015611c415780601f10611c1657610100808354040283529160200191611c41565b820191906000526020600020905b815481529060010190602001808311611c2457829003601f168201915b505050505081526020019060010190611bb2565b505050508152602001600b8201548152602001600c820160009054906101000a900473ffffffffffffffffffffffffffffffffffffffff1673ffffffffffffffffffffffffffffffffffffffff1673ffffffffffffffffffffffffffffffffffffffff168152602001600d8201548152602001600e8201600380602002604051908101604052809291908260038015611d03576020028201915b815481526020019060010190808311611cef575b5050505050815250509050919050565b600067ffffffffffffffff811115611d2e57611d2d6131cd565b5b604051908082528060200260200182016040528015611d5c5781602001602082028036833780820191505090505b50600e9080519060200190611d72929190612e43565b5060005b600d54811015612206576000600b6000838152602001908152602001600020604051806101c0016040529081600082018054611db190613dc8565b80601f0160208091040260200160405190810160405280929190818152602001828054611ddd90613dc8565b8015611e2a5780601f10611dff57610100808354040283529160200191611e2a565b820191906000526020600020905b815481529060010190602001808311611e0d57829003601f168201915b50505050508152602001600182018054611e4390613dc8565b80601f0160208091040260200160405190810160405280929190818152602001828054611e6f90613dc8565b8015611ebc5780601f10611e9157610100808354040283529160200191611ebc565b820191906000526020600020905b815481529060010190602001808311611e9f57829003601f168201915b505050505081526020016002820154815260200160038201805480602002602001604051908101604052809291908181526020018280548015611f1e57602002820191906000526020600020905b815481526020019060010190808311611f0a575b50505050508152602001600482015481526020016005820160009054906101000a900473ffffffffffffffffffffffffffffffffffffffff1673ffffffffffffffffffffffffffffffffffffffff1673ffffffffffffffffffffffffffffffffffffffff168152602001600682018054611f9790613dc8565b80601f0160208091040260200160405190810160405280929190818152602001828054611fc390613dc8565b80156120105780601f10611fe557610100808354040283529160200191612010565b820191906000526020600020905b815481529060010190602001808311611ff357829003601f168201915b505050505081526020016007820160009054906101000a900460ff161515151581526020016008820154815260200160098201600280602002604051908101604052809291906000905b828210156120fd57838201805461207090613dc8565b80601f016020809104026020016040519081016040528092919081815260200182805461209c90613dc8565b80156120e95780601f106120be576101008083540402835291602001916120e9565b820191906000526020600020905b8154815290600101906020018083116120cc57829003601f168201915b50505050508152602001906001019061205a565b505050508152602001600b8201548152602001600c820160009054906101000a900473ffffffffffffffffffffffffffffffffffffffff1673ffffffffffffffffffffffffffffffffffffffff1673ffffffffffffffffffffffffffffffffffffffff168152602001600d8201548152602001600e82016003806020026040519081016040528092919082600380156121ab576020028201915b815481526020019060010190808311612197575b50505050508152505090504281610100015111156121f257600e81610140015190806001815401808255809150506001900390600052602060002001600090919091909150555b5080806121fe90613ecd565b915050611d76565b50565b6060600e80548060200260200160405190810160405280929190818152602001828054801561225757602002820191906000526020600020905b815481526020019060010190808311612243575b5050505050905090565b6122696124e7565b61227281612579565b50565b600080600b6000848152602001908152602001600020600d0154905060005b600b60008581526020019081526020016000206003018054905081101561230b5781600b600086815260200190815260200160002060030182815481106122de576122dd613df9565b5b9060005260206000200154036122f857809250505061230e565b808061230390613ecd565b915050612294565b50505b919050565b6000808573ffffffffffffffffffffffffffffffffffffffff166323b872dd8686866040516024016123479392919061460b565b6040516020818303038152906040529060e01b6020820180517bffffffffffffffffffffffffffffffffffffffffffffffffffffffff83818316178352505050506040516123959190614689565b6000604051808303816000865af19150503d80600081146123d2576040519150601f19603f3d011682016040523d82523d6000602084013e6123d7565b606091505b5091509150818015612405575060008151148061240457508080602001905181019061240391906146b5565b5b5b612444576040517f08c379a000000000000000000000000000000000000000000000000000000000815260040161243b90614754565b60405180910390fd5b505050505050565b612454612fe7565b61245c612fe7565b612473858585846126a7909392919063ffffffff16565b9150509392505050565b61249482846080015161275790919063ffffffff16565b6124ab81846080015161275790919063ffffffff16565b505050565b60006124df600360009054906101000a900473ffffffffffffffffffffffffffffffffffffffff16848461277c565b905092915050565b600660009054906101000a900473ffffffffffffffffffffffffffffffffffffffff1673ffffffffffffffffffffffffffffffffffffffff163373ffffffffffffffffffffffffffffffffffffffff1614612577576040517f08c379a000000000000000000000000000000000000000000000000000000000815260040161256e906147c0565b60405180910390fd5b565b3373ffffffffffffffffffffffffffffffffffffffff168173ffffffffffffffffffffffffffffffffffffffff16036125e7576040517f08c379a00000000000000000000000000000000000000000000000000000000081526004016125de9061482c565b60405180910390fd5b80600760006101000a81548173ffffffffffffffffffffffffffffffffffffffff021916908373ffffffffffffffffffffffffffffffffffffffff1602179055508073ffffffffffffffffffffffffffffffffffffffff16600660009054906101000a900473ffffffffffffffffffffffffffffffffffffffff1673ffffffffffffffffffffffffffffffffffffffff167fed8889f560326eb138920d842192f0eb3dd22b4f139c87a2c57538e05bae127860405160405180910390a350565b6126af612fe7565b6126bf8560800151610100612848565b508385600001818152505082856020019073ffffffffffffffffffffffffffffffffffffffff16908173ffffffffffffffffffffffffffffffffffffffff16815250508185604001907bffffffffffffffffffffffffffffffffffffffffffffffffffffffff191690817bffffffffffffffffffffffffffffffffffffffffffffffffffffffff191681525050849050949350505050565b61276482600383516128b2565b6127778183612a3790919063ffffffff16565b505050565b60008060045490506001816127919190613e99565b6004819055506000634042994660e01b60008087600001513089604001518760018c60800151600001516040516024016127d29897969594939291906148d1565b604051602081830303815290604052907bffffffffffffffffffffffffffffffffffffffffffffffffffffffff19166020820180517bffffffffffffffffffffffffffffffffffffffffffffffffffffffff8381831617835250505050905061283d86838684612a59565b925050509392505050565b612850613054565b600060208361285f9190614956565b1461288b576020826128719190614956565b602061287d9190614987565b826128889190613e99565b91505b81836020018181525050604051808452600081528281016020016040525082905092915050565b60178167ffffffffffffffff16116128e9576128e38160058460ff16901b60ff161784612bee90919063ffffffff16565b50612a32565b60ff8167ffffffffffffffff161161293f57612918601860058460ff16901b1784612bee90919063ffffffff16565b506129398167ffffffffffffffff16600185612c0e9092919063ffffffff16565b50612a31565b61ffff8167ffffffffffffffff16116129965761296f601960058460ff16901b1784612bee90919063ffffffff16565b506129908167ffffffffffffffff16600285612c0e9092919063ffffffff16565b50612a30565b63ffffffff8167ffffffffffffffff16116129ef576129c8601a60058460ff16901b1784612bee90919063ffffffff16565b506129e98167ffffffffffffffff16600485612c0e9092919063ffffffff16565b50612a2f565b612a0c601b60058460ff16901b1784612bee90919063ffffffff16565b50612a2d8167ffffffffffffffff16600885612c0e9092919063ffffffff16565b505b5b5b5b505050565b612a3f613054565b612a5183846000015151848551612c30565b905092915050565b60003084604051602001612a6e929190614a6a565b604051602081830303815290604052805190602001209050846005600083815260200190815260200160002060006101000a81548173ffffffffffffffffffffffffffffffffffffffff021916908373ffffffffffffffffffffffffffffffffffffffff160217905550807fb5e6e01e79f91267dc17b4e6314d5d4d03593d2ceee0fbb452b750bd70ea5af960405160405180910390a2600260009054906101000a900473ffffffffffffffffffffffffffffffffffffffff1673ffffffffffffffffffffffffffffffffffffffff16634000aea08685856040518463ffffffff1660e01b8152600401612b6493929190614a96565b6020604051808303816000875af1158015612b83573d6000803e3d6000fd5b505050506040513d601f19601f82011682018060405250810190612ba791906146b5565b612be6576040517f08c379a0000000000000000000000000000000000000000000000000000000008152600401612bdd90614b46565b60405180910390fd5b949350505050565b612bf6613054565b612c068384600001515184612d1f565b905092915050565b612c16613054565b612c27848560000151518585612d75565b90509392505050565b612c38613054565b8251821115612c4657600080fd5b84602001518285612c579190613e99565b1115612c8c57612c8b856002612c7c88602001518887612c779190613e99565b612e03565b612c869190613e57565b612e1f565b5b600080865180518760208301019350808887011115612cab5787860182525b60208701925050505b60208410612cf25780518252602082612ccd9190613e99565b9150602081612cdc9190613e99565b9050602084612ceb9190614987565b9350612cb4565b60006001856020036101000a03905080198251168184511681811785525050508692505050949350505050565b612d27613054565b83602001518310612d4d57612d4c8460028660200151612d479190613e57565b612e1f565b5b83518051602085830101848153818603612d68576001820183525b5050508390509392505050565b612d7d613054565b84602001518483612d8e9190613e99565b1115612db657612db58560028685612da69190613e99565b612db09190613e57565b612e1f565b5b6000600183610100612dc89190614c99565b612dd29190614987565b90508551838682010185831982511617815281518588011115612df55784870182525b505085915050949350505050565b600081831115612e1557829050612e19565b8190505b92915050565b600082600001519050612e328383612848565b50612e3d8382612a37565b50505050565b828054828255906000526020600020908101928215612e7f579160200282015b82811115612e7e578251825591602001919060010190612e63565b5b509050612e8c919061306e565b5090565b6040518060600160405280600390602082028036833780820191505090505090565b8260028101928215612eed579160200282015b82811115612eec578251829081612edc919061428b565b5091602001919060010190612ec5565b5b509050612efa919061308b565b5090565b8260038101928215612f2d579160200282015b82811115612f2c578251825591602001919060010190612f11565b5b509050612f3a919061306e565b5090565b604051806101c001604052806060815260200160608152602001600081526020016060815260200160008152602001600073ffffffffffffffffffffffffffffffffffffffff1681526020016060815260200160001515815260200160008152602001612fa96130af565b815260200160008152602001600073ffffffffffffffffffffffffffffffffffffffff16815260200160008152602001612fe1612e90565b81525090565b6040518060a0016040528060008019168152602001600073ffffffffffffffffffffffffffffffffffffffff16815260200160007bffffffffffffffffffffffffffffffffffffffffffffffffffffffff191681526020016000815260200161304e613054565b81525090565b604051806040016040528060608152602001600081525090565b5b8082111561308757600081600090555060010161306f565b5090565b5b808211156130ab57600081816130a291906130d6565b5060010161308c565b5090565b60405180604001604052806002905b60608152602001906001900390816130be5790505090565b5080546130e290613dc8565b6000825580601f106130f45750613113565b601f016020900490600052602060002090810190613112919061306e565b5b50565b6000604051905090565b600080fd5b600080fd5b6000819050919050565b61313d8161312a565b811461314857600080fd5b50565b60008135905061315a81613134565b92915050565b60006020828403121561317657613175613120565b5b60006131848482850161314b565b91505092915050565b6131968161312a565b82525050565b60006020820190506131b1600083018461318d565b92915050565b600080fd5b6000601f19601f8301169050919050565b7f4e487b7100000000000000000000000000000000000000000000000000000000600052604160045260246000fd5b613205826131bc565b810181811067ffffffffffffffff82111715613224576132236131cd565b5b80604052505050565b6000613237613116565b905061324382826131fc565b919050565b600067ffffffffffffffff821115613263576132626131cd565b5b602082029050602081019050919050565b600080fd5b600061328c61328784613248565b61322d565b905080838252602082019050602084028301858111156132af576132ae613274565b5b835b818110156132d857806132c4888261314b565b8452602084019350506020810190506132b1565b5050509392505050565b600082601f8301126132f7576132f66131b7565b5b8135613307848260208601613279565b91505092915050565b6000806040838503121561332757613326613120565b5b600083013567ffffffffffffffff81111561334557613344613125565b5b613351858286016132e2565b92505060206133628582860161314b565b9150509250929050565b600080fd5b600067ffffffffffffffff82111561338c5761338b6131cd565b5b613395826131bc565b9050602081019050919050565b82818337600083830152505050565b60006133c46133bf84613371565b61322d565b9050828152602081018484840111156133e0576133df61336c565b5b6133eb8482856133a2565b509392505050565b600082601f830112613408576134076131b7565b5b81356134188482602086016133b1565b91505092915050565b600073ffffffffffffffffffffffffffffffffffffffff82169050919050565b600061344c82613421565b9050919050565b61345c81613441565b811461346757600080fd5b50565b60008135905061347981613453565b92915050565b60008115159050919050565b6134948161347f565b811461349f57600080fd5b50565b6000813590506134b18161348b565b92915050565b60008060008060008060008060008060006101608c8e0312156134dd576134dc613120565b5b60008c013567ffffffffffffffff8111156134fb576134fa613125565b5b6135078e828f016133f3565b9b505060208c013567ffffffffffffffff81111561352857613527613125565b5b6135348e828f016133f3565b9a505060406135458e828f0161314b565b99505060608c013567ffffffffffffffff81111561356657613565613125565b5b6135728e828f016132e2565b98505060806135838e828f0161314b565b97505060a06135948e828f0161346a565b96505060c08c013567ffffffffffffffff8111156135b5576135b4613125565b5b6135c18e828f016133f3565b95505060e06135d28e828f016134a2565b9450506101006135e48e828f0161314b565b9350506101208c013567ffffffffffffffff81111561360657613605613125565b5b6136128e828f016133f3565b9250506101408c013567ffffffffffffffff81111561363457613633613125565b5b6136408e828f016133f3565b9150509295989b509295989b9093969950565b6000819050919050565b61366681613653565b811461367157600080fd5b50565b6000813590506136838161365d565b92915050565b600080604083850312156136a05761369f613120565b5b60006136ae85828601613674565b92505060206136bf8582860161314b565b9150509250929050565b600080604083850312156136e0576136df613120565b5b60006136ee8582860161314b565b92505060206136ff8582860161314b565b9150509250929050565b6137128161347f565b82525050565b600060208201905061372d6000830184613709565b92915050565b60006020828403121561374957613748613120565b5b600082013567ffffffffffffffff81111561376757613766613125565b5b613773848285016133f3565b91505092915050565b61378581613653565b82525050565b60006020820190506137a0600083018461377c565b92915050565b600081519050919050565b600082825260208201905092915050565b60005b838110156137e05780820151818401526020810190506137c5565b60008484015250505050565b60006137f7826137a6565b61380181856137b1565b93506138118185602086016137c2565b61381a816131bc565b840191505092915050565b61382e81613441565b82525050565b600061016082019050818103600083015261384f818e6137ec565b90508181036020830152613863818d6137ec565b9050613872604083018c61318d565b61387f606083018b61318d565b61388c608083018a613825565b81810360a083015261389e81896137ec565b90506138ad60c0830188613709565b6138ba60e083018761318d565b6138c861010083018661318d565b6138d6610120830185613825565b6138e461014083018461318d565b9c9b505050505050505050505050565b60006020820190506139096000830184613825565b92915050565b600082825260208201905092915050565b600061392b826137a6565b613935818561390f565b93506139458185602086016137c2565b61394e816131bc565b840191505092915050565b6139628161312a565b82525050565b600081519050919050565b600082825260208201905092915050565b6000819050602082019050919050565b60006139a08383613959565b60208301905092915050565b6000602082019050919050565b60006139c482613968565b6139ce8185613973565b93506139d983613984565b8060005b83811015613a0a5781516139f18882613994565b97506139fc836139ac565b9250506001810190506139dd565b5085935050505092915050565b613a2081613441565b82525050565b613a2f8161347f565b82525050565b600060029050919050565b600081905092915050565b6000819050919050565b6000613a618383613920565b905092915050565b6000602082019050919050565b6000613a8182613a35565b613a8b8185613a40565b935083602082028501613a9d85613a4b565b8060005b85811015613ad95784840389528151613aba8582613a55565b9450613ac583613a69565b925060208a01995050600181019050613aa1565b50829750879550505050505092915050565b600060039050919050565b600081905092915050565b6000819050919050565b6000602082019050919050565b613b2181613aeb565b613b2b8184613af6565b9250613b3682613b01565b8060005b83811015613b67578151613b4e8782613994565b9650613b5983613b0b565b925050600181019050613b3a565b505050505050565b6000610200830160008301518482036000860152613b8d8282613920565b91505060208301518482036020860152613ba78282613920565b9150506040830151613bbc6040860182613959565b5060608301518482036060860152613bd482826139b9565b9150506080830151613be96080860182613959565b5060a0830151613bfc60a0860182613a17565b5060c083015184820360c0860152613c148282613920565b91505060e0830151613c2960e0860182613a26565b50610100830151613c3e610100860182613959565b50610120830151848203610120860152613c588282613a76565b915050610140830151613c6f610140860182613959565b50610160830151613c84610160860182613a17565b50610180830151613c99610180860182613959565b506101a0830151613cae6101a0860182613b18565b508091505092915050565b60006020820190508181036000830152613cd38184613b6f565b905092915050565b600082825260208201905092915050565b6000613cf782613968565b613d018185613cdb565b9350613d0c83613984565b8060005b83811015613d3d578151613d248882613994565b9750613d2f836139ac565b925050600181019050613d10565b5085935050505092915050565b60006020820190508181036000830152613d648184613cec565b905092915050565b600060208284031215613d8257613d81613120565b5b6000613d908482850161346a565b91505092915050565b7f4e487b7100000000000000000000000000000000000000000000000000000000600052602260045260246000fd5b60006002820490506001821680613de057607f821691505b602082108103613df357613df2613d99565b5b50919050565b7f4e487b7100000000000000000000000000000000000000000000000000000000600052603260045260246000fd5b7f4e487b7100000000000000000000000000000000000000000000000000000000600052601160045260246000fd5b6000613e628261312a565b9150613e6d8361312a565b9250828202613e7b8161312a565b91508282048414831517613e9257613e91613e28565b5b5092915050565b6000613ea48261312a565b9150613eaf8361312a565b9250828201905080821115613ec757613ec6613e28565b5b92915050565b6000613ed88261312a565b91507fffffffffffffffffffffffffffffffffffffffffffffffffffffffffffffffff8203613f0a57613f09613e28565b5b600182019050919050565b7f4e487b7100000000000000000000000000000000000000000000000000000000600052601260045260246000fd5b6000613f4f8261312a565b9150613f5a8361312a565b925082613f6a57613f69613f15565b5b828204905092915050565b7f54686520646561646c696e6520686173206e6f74207965742070617373656400600082015250565b6000613fab601f836137b1565b9150613fb682613f75565b602082019050919050565b60006020820190508181036000830152613fda81613f9e565b9050919050565b7f596f7520646964206e6f7420706c616365206120636f72726563742062657400600082015250565b6000614017601f836137b1565b915061402282613fe1565b602082019050919050565b600060208201905081810360008301526140468161400a565b9050919050565b7f52657761726420746f6b656e2073706563696669636174696f6e20756e636c6560008201527f61722e0000000000000000000000000000000000000000000000000000000000602082015250565b60006140a96023836137b1565b91506140b48261404d565b604082019050919050565b600060208201905081810360008301526140d88161409c565b9050919050565b60008190508160005260206000209050919050565b60006020601f8301049050919050565b600082821b905092915050565b6000600883026141417fffffffffffffffffffffffffffffffffffffffffffffffffffffffffffffffff82614104565b61414b8683614104565b95508019841693508086168417925050509392505050565b6000819050919050565b600061418861418361417e8461312a565b614163565b61312a565b9050919050565b6000819050919050565b6141a28361416d565b6141b66141ae8261418f565b848454614111565b825550505050565b600090565b6141cb6141be565b6141d6818484614199565b505050565b5b818110156141fa576141ef6000826141c3565b6001810190506141dc565b5050565b601f82111561423f57614210816140df565b614219846140f4565b81016020851015614228578190505b61423c614234856140f4565b8301826141db565b50505b505050565b600082821c905092915050565b600061426260001984600802614244565b1980831691505092915050565b600061427b8383614251565b9150826002028217905092915050565b614294826137a6565b67ffffffffffffffff8111156142ad576142ac6131cd565b5b6142b78254613dc8565b6142c28282856141fe565b600060209050601f8311600181146142f557600084156142e3578287015190505b6142ed858261426f565b865550614355565b601f198416614303866140df565b60005b8281101561432b57848901518255600182019150602085019450602081019050614306565b868310156143485784890151614344601f891682614251565b8355505b6001600288020188555050505b505050505050565b7f536f75726365206d75737420626520746865206f7261636c65206f662074686560008201527f2072657175657374000000000000000000000000000000000000000000000000602082015250565b60006143b96028836137b1565b91506143c48261435d565b604082019050919050565b600060208201905081810360008301526143e8816143ac565b9050919050565b7f55736572206e6f742077686974656c6973746564000000000000000000000000600082015250565b60006144256014836137b1565b9150614430826143ef565b602082019050919050565b6000602082019050818103600083015261445481614418565b9050919050565b7f5468652070726564696374696f6e2068617320656e6465640000000000000000600082015250565b60006144916018836137b1565b915061449c8261445b565b602082019050919050565b600060208201905081810360008301526144c081614484565b9050919050565b7f416d6f756e7473206e6565647320746f20737572706173732030000000000000600082015250565b60006144fd601a836137b1565b9150614508826144c7565b602082019050919050565b6000602082019050818103600083015261452c816144f0565b9050919050565b7f4d7573742062652070726f706f736564206f776e657200000000000000000000600082015250565b60006145696016836137b1565b915061457482614533565b602082019050919050565b600060208201905081810360008301526145988161455c565b9050919050565b7f446561646c696e6520686173206e6f7420796574207061737365640000000000600082015250565b60006145d5601b836137b1565b91506145e08261459f565b602082019050919050565b60006020820190508181036000830152614604816145c8565b9050919050565b60006060820190506146206000830186613825565b61462d6020830185613825565b61463a604083018461318d565b949350505050565b600081519050919050565b600081905092915050565b600061466382614642565b61466d818561464d565b935061467d8185602086016137c2565b80840191505092915050565b60006146958284614658565b915081905092915050565b6000815190506146af8161348b565b92915050565b6000602082840312156146cb576146ca613120565b5b60006146d9848285016146a0565b91505092915050565b7f5472616e7366657248656c7065723a3a7472616e7366657246726f6d3a20747260008201527f616e7366657246726f6d206661696c6564000000000000000000000000000000602082015250565b600061473e6031836137b1565b9150614749826146e2565b604082019050919050565b6000602082019050818103600083015261476d81614731565b9050919050565b7f4f6e6c792063616c6c61626c65206279206f776e657200000000000000000000600082015250565b60006147aa6016836137b1565b91506147b582614774565b602082019050919050565b600060208201905081810360008301526147d98161479d565b9050919050565b7f43616e6e6f74207472616e7366657220746f2073656c66000000000000000000600082015250565b60006148166017836137b1565b9150614821826147e0565b602082019050919050565b6000602082019050818103600083015261484581614809565b9050919050565b60007fffffffff0000000000000000000000000000000000000000000000000000000082169050919050565b6148818161484c565b82525050565b600082825260208201905092915050565b60006148a382614642565b6148ad8185614887565b93506148bd8185602086016137c2565b6148c6816131bc565b840191505092915050565b6000610100820190506148e7600083018b613825565b6148f4602083018a61318d565b614901604083018961377c565b61490e6060830188613825565b61491b6080830187614878565b61492860a083018661318d565b61493560c083018561318d565b81810360e08301526149478184614898565b90509998505050505050505050565b60006149618261312a565b915061496c8361312a565b92508261497c5761497b613f15565b5b828206905092915050565b60006149928261312a565b915061499d8361312a565b92508282039050818111156149b5576149b4613e28565b5b92915050565b60006149d66149d16149cc84613421565b614163565b613421565b9050919050565b60006149e8826149bb565b9050919050565b60006149fa826149dd565b9050919050565b60008160601b9050919050565b6000614a1982614a01565b9050919050565b6000614a2b82614a0e565b9050919050565b614a43614a3e826149ef565b614a20565b82525050565b6000819050919050565b614a64614a5f8261312a565b614a49565b82525050565b6000614a768285614a32565b601482019150614a868284614a53565b6020820191508190509392505050565b6000606082019050614aab6000830186613825565b614ab8602083018561318d565b8181036040830152614aca8184614898565b9050949350505050565b7f756e61626c6520746f207472616e73666572416e6443616c6c20746f206f726160008201527f636c650000000000000000000000000000000000000000000000000000000000602082015250565b6000614b306023836137b1565b9150614b3b82614ad4565b604082019050919050565b60006020820190508181036000830152614b5f81614b23565b9050919050565b60008160011c9050919050565b6000808291508390505b6001851115614bbd57808604811115614b9957614b98613e28565b5b6001851615614ba85780820291505b8081029050614bb685614b66565b9450614b7d565b94509492505050565b600082614bd65760019050614c92565b81614be45760009050614c92565b8160018114614bfa5760028114614c0457614c33565b6001915050614c92565b60ff841115614c1657614c15613e28565b5b8360020a915084821115614c2d57614c2c613e28565b5b50614c92565b5060208310610133831016604e8410600b8410161715614c685782820a905083811115614c6357614c62613e28565b5b614c92565b614c758484846001614b73565b92509050818404811115614c8c57614c8b613e28565b5b81810290505b9392505050565b6000614ca48261312a565b9150614caf8361312a565b9250614cdc7fffffffffffffffffffffffffffffffffffffffffffffffffffffffffffffffff8484614bc6565b90509291505056fea26469706673582212206e02f264d57731a100dcc9281f63890d5de08c6b3176527768739d74a0815ac164736f6c63430008110033",
  "linkReferences": {},
  "deployedLinkReferences": {}
}